{"contracts/Ballot.sol":{"Ballot":{"abi":[{"inputs":[{"internalType":"uint256","name":"stg_lmt","type":"uint256"},{"internalType":"address","name":"_groth16VerifierAddress","type":"address"}],"stateMutability":"nonpayable","type":"constructor"},{"anonymous":false,"inputs":[{"indexed":false,"internalType":"string","name":"error","type":"string"}],"name":"ErrorOccurred","type":"event"},{"anonymous":false,"inputs":[{"indexed":false,"internalType":"bool","name":"result","type":"bool"}],"name":"ProofResult","type":"event"},{"anonymous":false,"inputs":[{"indexed":false,"internalType":"uint256","name":"voteCommitment","type":"uint256"},{"indexed":true,"internalType":"uint256","name":"nullifierHash","type":"uint256"}],"name":"VoteSubmitted","type":"event"},{"inputs":[{"internalType":"uint256","name":"","type":"uint256"}],"name":"allVoteCommitments","outputs":[{"internalType":"uint256","name":"","type":"uint256"}],"stateMutability":"view","type":"function"},{"inputs":[{"internalType":"uint256","name":"","type":"uint256"}],"name":"candidates","outputs":[{"internalType":"bytes32","name":"name","type":"bytes32"},{"internalType":"uint256","name":"voteCount","type":"uint256"}],"stateMutability":"view","type":"function"},{"inputs":[],"name":"candidatesCount","outputs":[{"internalType":"uint256","name":"","type":"uint256"}],"stateMutability":"view","type":"function"},{"inputs":[],"name":"chairperson","outputs":[{"internalType":"address","name":"","type":"address"}],"stateMutability":"view","type":"function"},{"inputs":[],"name":"endTime","outputs":[{"internalType":"uint256","name":"","type":"uint256"}],"stateMutability":"view","type":"function"},{"inputs":[],"name":"getAllVotes","outputs":[{"internalType":"uint256[]","name":"","type":"uint256[]"}],"stateMutability":"view","type":"function"},{"inputs":[],"name":"getCandidates","outputs":[{"components":[{"internalType":"bytes32","name":"name","type":"bytes32"},{"internalType":"uint256","name":"voteCount","type":"uint256"}],"internalType":"struct Ballot.Candidate[]","name":"","type":"tuple[]"}],"stateMutability":"view","type":"function"},{"inputs":[],"name":"groth16VerifierAddress","outputs":[{"internalType":"address","name":"","type":"address"}],"stateMutability":"view","type":"function"},{"inputs":[{"internalType":"uint256","name":"","type":"uint256"}],"name":"hasVoted","outputs":[{"internalType":"bool","name":"","type":"bool"}],"stateMutability":"view","type":"function"},{"inputs":[{"internalType":"uint256[]","name":"votes","type":"uint256[]"}],"name":"issueBallotResults","outputs":[],"stateMutability":"nonpayable","type":"function"},{"inputs":[],"name":"issuedResults","outputs":[{"internalType":"bool","name":"","type":"bool"}],"stateMutability":"view","type":"function"},{"inputs":[{"internalType":"uint256[2]","name":"_pA","type":"uint256[2]"},{"internalType":"uint256[2][2]","name":"_pB","type":"uint256[2][2]"},{"internalType":"uint256[2]","name":"_pC","type":"uint256[2]"},{"internalType":"uint256[2]","name":"_pubSignals","type":"uint256[2]"}],"name":"proveYourVote","outputs":[{"internalType":"bool","name":"","type":"bool"}],"stateMutability":"view","type":"function"},{"inputs":[{"internalType":"bytes32","name":"_name","type":"bytes32"}],"name":"registerCandidates","outputs":[],"stateMutability":"nonpayable","type":"function"},{"inputs":[{"internalType":"address","name":"voter","type":"address"}],"name":"registerVoters","outputs":[],"stateMutability":"nonpayable","type":"function"},{"inputs":[],"name":"stageLimit","outputs":[{"internalType":"uint256","name":"","type":"uint256"}],"stateMutability":"view","type":"function"},{"inputs":[{"internalType":"uint256","name":"curTime","type":"uint256"}],"name":"startBallot","outputs":[],"stateMutability":"nonpayable","type":"function"},{"inputs":[],"name":"startupTime","outputs":[{"internalType":"uint256","name":"","type":"uint256"}],"stateMutability":"view","type":"function"},{"inputs":[{"internalType":"uint256[2]","name":"_pA","type":"uint256[2]"},{"internalType":"uint256[2][2]","name":"_pB","type":"uint256[2][2]"},{"internalType":"uint256[2]","name":"_pC","type":"uint256[2]"},{"internalType":"uint256[2]","name":"_pubSignals","type":"uint256[2]"}],"name":"submitVote","outputs":[],"stateMutability":"nonpayable","type":"function"},{"inputs":[{"internalType":"address","name":"voter","type":"address"}],"name":"verifyVoter","outputs":[{"internalType":"bytes32","name":"","type":"bytes32"}],"stateMutability":"view","type":"function"},{"inputs":[{"internalType":"uint256","name":"","type":"uint256"}],"name":"voteCommitments","outputs":[{"internalType":"bool","name":"","type":"bool"}],"stateMutability":"view","type":"function"},{"inputs":[],"name":"votersCount","outputs":[{"internalType":"uint256","name":"","type":"uint256"}],"stateMutability":"view","type":"function"}],"evm":{"bytecode":{"linkReferences":{},"object":"608060405234801561001057600080fd5b506040516124b03803806124b08339818101604052810190610032919061018d565b336000806101000a81548173ffffffffffffffffffffffffffffffffffffffff021916908373ffffffffffffffffffffffffffffffffffffffff16021790555080600760016101000a81548173ffffffffffffffffffffffffffffffffffffffff021916908373ffffffffffffffffffffffffffffffffffffffff160217905550600060028190555081600481905550600060068190555060006005819055506000600760006101000a81548160ff02191690831515021790555050506101cd565b600080fd5b6000819050919050565b61010c816100f9565b811461011757600080fd5b50565b60008151905061012981610103565b92915050565b600073ffffffffffffffffffffffffffffffffffffffff82169050919050565b600061015a8261012f565b9050919050565b61016a8161014f565b811461017557600080fd5b50565b60008151905061018781610161565b92915050565b600080604083850312156101a4576101a36100f4565b5b60006101b28582860161011a565b92505060206101c385828601610178565b9150509250929050565b6122d4806101dc6000396000f3fe608060405234801561001057600080fd5b50600436106101375760003560e01c80633477ee2e116100b8578063a0e5f8901161007c578063a0e5f8901461033f578063e8d0827b1461035d578063eac696861461038d578063ecca031f146103ab578063ed8a1608146103db578063f1f710d5146103f757610137565b80633477ee2e1461029a578063851b6ef2146102cb5780638b51ebff146102e95780638eb6f9eb1461030557806398c079381461032157610137565b806324f3da33116100ff57806324f3da33146101f25780632d35a8a2146102225780632e4176cf146102405780633197cbb61461025e578063345eacf21461027c57610137565b8063017cd8271461013c57806306a49fce1461016c57806309bd09501461018a57806318034fe4146101ba5780631927f068146101d6575b600080fd5b61015660048036038101906101519190611211565b610415565b6040516101639190611295565b60405180910390f35b61017461058b565b60405161018191906113c0565b60405180910390f35b6101a4600480360381019061019f9190611440565b6105fe565b6040516101b1919061147c565b60405180910390f35b6101d460048036038101906101cf91906114c3565b6106cb565b005b6101f060048036038101906101eb9190611211565b6107ea565b005b61020c600480360381019061020791906114c3565b610b17565b60405161021991906114ff565b60405180910390f35b61022a610b3b565b60405161023791906114ff565b60405180910390f35b610248610b41565b6040516102559190611529565b60405180910390f35b610266610b65565b60405161027391906114ff565b60405180910390f35b610284610b6b565b60405161029191906114ff565b60405180910390f35b6102b460048036038101906102af91906114c3565b610b71565b6040516102c2929190611544565b60405180910390f35b6102d3610ba5565b6040516102e0919061161c565b60405180910390f35b61030360048036038101906102fe919061166a565b610bfd565b005b61031f600480360381019061031a91906117eb565b610d44565b005b610329610f3a565b60405161033691906114ff565b60405180910390f35b610347610f40565b6040516103549190611529565b60405180910390f35b610377600480360381019061037291906114c3565b610f66565b6040516103849190611295565b60405180910390f35b610395610f86565b6040516103a291906114ff565b60405180910390f35b6103c560048036038101906103c091906114c3565b610f8c565b6040516103d29190611295565b60405180910390f35b6103f560048036038101906103f09190611440565b610fac565b005b6103ff6111a1565b60405161040c9190611295565b60405180910390f35b6000806002540361045b576040517f08c379a0000000000000000000000000000000000000000000000000000000008152600401610452906118b7565b60405180910390fd5b6000600760019054906101000a900473ffffffffffffffffffffffffffffffffffffffff1673ffffffffffffffffffffffffffffffffffffffff1663f5c9d69e878787876040518563ffffffff1660e01b81526004016104be94939291906119af565b602060405180830381865afa1580156104db573d6000803e3d6000fd5b505050506040513d601f19601f820116820180604052508101906104ff9190611a22565b905080610541576040517f08c379a000000000000000000000000000000000000000000000000000000000815260040161053890611a9b565b60405180910390fd5b60008360016002811061055757610556611abb565b5b602002013590506009600082815260200190815260200160002060009054906101000a900460ff1692505050949350505050565b60606001805480602002602001604051908101604052809291908181526020016000905b828210156105f5578382906000526020600020906002020160405180604001604052908160008201548152602001600182015481525050815260200190600101906105af565b50505050905090565b60008060001b600860008473ffffffffffffffffffffffffffffffffffffffff1673ffffffffffffffffffffffffffffffffffffffff1681526020019081526020016000205403610684576040517f08c379a000000000000000000000000000000000000000000000000000000000815260040161067b90611b5c565b60405180910390fd5b600860008373ffffffffffffffffffffffffffffffffffffffff1673ffffffffffffffffffffffffffffffffffffffff168152602001908152602001600020549050919050565b60008054906101000a900473ffffffffffffffffffffffffffffffffffffffff1673ffffffffffffffffffffffffffffffffffffffff163373ffffffffffffffffffffffffffffffffffffffff1614610759576040517f08c379a000000000000000000000000000000000000000000000000000000000815260040161075090611bee565b60405180910390fd5b60006002541461079e576040517f08c379a000000000000000000000000000000000000000000000000000000000815260040161079590611c80565b60405180910390fd5b426002819055508060025411156107d157806002546107bd9190611ccf565b6004546107ca9190611ccf565b6004819055505b6004546002546107e19190611d03565b60038190555050565b60006002540361082f576040517f08c379a0000000000000000000000000000000000000000000000000000000008152600401610826906118b7565b60405180910390fd5b600354421115610874576040517f08c379a000000000000000000000000000000000000000000000000000000000815260040161086b90611da9565b60405180910390fd5b6000600760019054906101000a900473ffffffffffffffffffffffffffffffffffffffff1673ffffffffffffffffffffffffffffffffffffffff1663f5c9d69e868686866040518563ffffffff1660e01b81526004016108d794939291906119af565b602060405180830381865afa1580156108f4573d6000803e3d6000fd5b505050506040513d601f19601f820116820180604052508101906109189190611a22565b90507fb6030296ed6d28f593d0c257c080ef243cd60eb419e82d45d9e530c593915102816040516109499190611295565b60405180910390a180610991576040517f08c379a000000000000000000000000000000000000000000000000000000000815260040161098890611a9b565b60405180910390fd5b6000826000600281106109a7576109a6611abb565b5b602002013590506000836001600281106109c4576109c3611abb565b5b602002013590506009600082815260200190815260200160002060009054906101000a900460ff1615610a2c576040517f08c379a0000000000000000000000000000000000000000000000000000000008152600401610a2390611e15565b60405180910390fd5b600a600083815260200190815260200160002060009054906101000a900460ff1615610a8d576040517f08c379a0000000000000000000000000000000000000000000000000000000008152600401610a8490611e15565b60405180910390fd5b60016009600083815260200190815260200160002060006101000a81548160ff0219169083151502179055506001600a600084815260200190815260200160002060006101000a81548160ff021916908315150217905550600b82908060018154018082558091505060019003906000526020600020016000909190919091505550505050505050565b600b8181548110610b2757600080fd5b906000526020600020016000915090505481565b60065481565b60008054906101000a900473ffffffffffffffffffffffffffffffffffffffff1681565b60035481565b60025481565b60018181548110610b8157600080fd5b90600052602060002090600202016000915090508060000154908060010154905082565b6060600b805480602002602001604051908101604052809291908181526020018280548015610bf357602002820191906000526020600020905b815481526020019060010190808311610bdf575b5050505050905090565b60008054906101000a900473ffffffffffffffffffffffffffffffffffffffff1673ffffffffffffffffffffffffffffffffffffffff163373ffffffffffffffffffffffffffffffffffffffff1614610c8b576040517f08c379a0000000000000000000000000000000000000000000000000000000008152600401610c8290611bee565b60405180910390fd5b600060025414610cd0576040517f08c379a0000000000000000000000000000000000000000000000000000000008152600401610cc790611ea7565b60405180910390fd5b600160405180604001604052808381526020016000815250908060018154018082558091505060019003906000526020600020906002020160009091909190915060008201518160000155602082015181600101555050600160066000828254610d3a9190611d03565b9250508190555050565b60008054906101000a900473ffffffffffffffffffffffffffffffffffffffff1673ffffffffffffffffffffffffffffffffffffffff163373ffffffffffffffffffffffffffffffffffffffff1614610dd2576040517f08c379a0000000000000000000000000000000000000000000000000000000008152600401610dc990611bee565b60405180910390fd5b600060025403610e17576040517f08c379a0000000000000000000000000000000000000000000000000000000008152600401610e0e90611f39565b60405180910390fd5b6003544211610e5b576040517f08c379a0000000000000000000000000000000000000000000000000000000008152600401610e5290611fcb565b60405180910390fd5b600760009054906101000a900460ff1615610eab576040517f08c379a0000000000000000000000000000000000000000000000000000000008152600401610ea29061205d565b60405180910390fd5b60005b6001805490508160ff161015610f1b57818160ff1681518110610ed457610ed3611abb565b5b602002602001015160018260ff1681548110610ef357610ef2611abb565b5b9060005260206000209060020201600101819055508080610f139061208a565b915050610eae565b506001600760006101000a81548160ff02191690831515021790555050565b60055481565b600760019054906101000a900473ffffffffffffffffffffffffffffffffffffffff1681565b600a6020528060005260406000206000915054906101000a900460ff1681565b60045481565b60096020528060005260406000206000915054906101000a900460ff1681565b60008054906101000a900473ffffffffffffffffffffffffffffffffffffffff1673ffffffffffffffffffffffffffffffffffffffff163373ffffffffffffffffffffffffffffffffffffffff161461103a576040517f08c379a000000000000000000000000000000000000000000000000000000000815260040161103190611bee565b60405180910390fd5b60006002541461107f576040517f08c379a000000000000000000000000000000000000000000000000000000000815260040161107690612125565b60405180910390fd5b6000801b600860008373ffffffffffffffffffffffffffffffffffffffff1673ffffffffffffffffffffffffffffffffffffffff1681526020019081526020016000205414611103576040517f08c379a00000000000000000000000000000000000000000000000000000000081526004016110fa906121b7565b60405180910390fd5b600042826001436111149190611ccf565b4060405160200161112793929190612261565b60405160208183030381529060405280519060200120905080600860008473ffffffffffffffffffffffffffffffffffffffff1673ffffffffffffffffffffffffffffffffffffffff168152602001908152602001600020819055506001600560008282546111969190611d03565b925050819055505050565b600760009054906101000a900460ff1681565b6000604051905090565b600080fd5b600080fd5b600080fd5b6000819050826020600202820111156111e9576111e86111c8565b5b92915050565b60008190508260406002028201111561120b5761120a6111c8565b5b92915050565b600080600080610140858703121561122c5761122b6111be565b5b600061123a878288016111cd565b945050604061124b878288016111ef565b93505060c061125c878288016111cd565b92505061010061126e878288016111cd565b91505092959194509250565b60008115159050919050565b61128f8161127a565b82525050565b60006020820190506112aa6000830184611286565b92915050565b600081519050919050565b600082825260208201905092915050565b6000819050602082019050919050565b6000819050919050565b6112ef816112dc565b82525050565b6000819050919050565b611308816112f5565b82525050565b60408201600082015161132460008501826112e6565b50602082015161133760208501826112ff565b50505050565b6000611349838361130e565b60408301905092915050565b6000602082019050919050565b600061136d826112b0565b61137781856112bb565b9350611382836112cc565b8060005b838110156113b357815161139a888261133d565b97506113a583611355565b925050600181019050611386565b5085935050505092915050565b600060208201905081810360008301526113da8184611362565b905092915050565b600073ffffffffffffffffffffffffffffffffffffffff82169050919050565b600061140d826113e2565b9050919050565b61141d81611402565b811461142857600080fd5b50565b60008135905061143a81611414565b92915050565b600060208284031215611456576114556111be565b5b60006114648482850161142b565b91505092915050565b611476816112dc565b82525050565b6000602082019050611491600083018461146d565b92915050565b6114a0816112f5565b81146114ab57600080fd5b50565b6000813590506114bd81611497565b92915050565b6000602082840312156114d9576114d86111be565b5b60006114e7848285016114ae565b91505092915050565b6114f9816112f5565b82525050565b600060208201905061151460008301846114f0565b92915050565b61152381611402565b82525050565b600060208201905061153e600083018461151a565b92915050565b6000604082019050611559600083018561146d565b61156660208301846114f0565b9392505050565b600081519050919050565b600082825260208201905092915050565b6000819050602082019050919050565b60006115a583836112ff565b60208301905092915050565b6000602082019050919050565b60006115c98261156d565b6115d38185611578565b93506115de83611589565b8060005b8381101561160f5781516115f68882611599565b9750611601836115b1565b9250506001810190506115e2565b5085935050505092915050565b6000602082019050818103600083015261163681846115be565b905092915050565b611647816112dc565b811461165257600080fd5b50565b6000813590506116648161163e565b92915050565b6000602082840312156116805761167f6111be565b5b600061168e84828501611655565b91505092915050565b600080fd5b6000601f19601f8301169050919050565b7f4e487b7100000000000000000000000000000000000000000000000000000000600052604160045260246000fd5b6116e58261169c565b810181811067ffffffffffffffff82111715611704576117036116ad565b5b80604052505050565b60006117176111b4565b905061172382826116dc565b919050565b600067ffffffffffffffff821115611743576117426116ad565b5b602082029050602081019050919050565b600061176761176284611728565b61170d565b9050808382526020820190506020840283018581111561178a576117896111c8565b5b835b818110156117b3578061179f88826114ae565b84526020840193505060208101905061178c565b5050509392505050565b600082601f8301126117d2576117d1611697565b5b81356117e2848260208601611754565b91505092915050565b600060208284031215611801576118006111be565b5b600082013567ffffffffffffffff81111561181f5761181e6111c3565b5b61182b848285016117bd565b91505092915050565b600082825260208201905092915050565b7f54686520766f74696e672070726f63657373206861736e27742073746172746560008201527f6420796574000000000000000000000000000000000000000000000000000000602082015250565b60006118a1602583611834565b91506118ac82611845565b604082019050919050565b600060208201905081810360008301526118d081611894565b9050919050565b82818337505050565b6118ec604083836118d7565b5050565b600060029050919050565b600081905092915050565b6000819050919050565b61191c604083836118d7565b5050565b600061192c8383611910565b60408301905092915050565b600082905092915050565b6000604082019050919050565b611959816118f0565b61196381846118fb565b925061196e82611906565b8060005b838110156119a7576119848284611938565b61198e8782611920565b965061199983611943565b925050600181019050611972565b505050505050565b6000610140820190506119c560008301876118e0565b6119d26040830186611950565b6119df60c08301856118e0565b6119ed6101008301846118e0565b95945050505050565b6119ff8161127a565b8114611a0a57600080fd5b50565b600081519050611a1c816119f6565b92915050565b600060208284031215611a3857611a376111be565b5b6000611a4684828501611a0d565b91505092915050565b7f4163636573732064656e6965643a20496e76616c69642050726f6f662e000000600082015250565b6000611a85601d83611834565b9150611a9082611a4f565b602082019050919050565b60006020820190508181036000830152611ab481611a78565b9050919050565b7f4e487b7100000000000000000000000000000000000000000000000000000000600052603260045260246000fd5b7f54686520766f74657220646f6573206e6f74206861766520746865207269676860008201527f7420746f20766f74652e00000000000000000000000000000000000000000000602082015250565b6000611b46602a83611834565b9150611b5182611aea565b604082019050919050565b60006020820190508181036000830152611b7581611b39565b9050919050565b7f4f6e6c79206368616972706572736f6e206861732061636365737320746f207460008201527f6869732066756e6374696f6e2100000000000000000000000000000000000000602082015250565b6000611bd8602d83611834565b9150611be382611b7c565b604082019050919050565b60006020820190508181036000830152611c0781611bcb565b9050919050565b7f54686520656c656374696f6e732068617320616c7265616479206265656e207360008201527f7461727465640000000000000000000000000000000000000000000000000000602082015250565b6000611c6a602683611834565b9150611c7582611c0e565b604082019050919050565b60006020820190508181036000830152611c9981611c5d565b9050919050565b7f4e487b7100000000000000000000000000000000000000000000000000000000600052601160045260246000fd5b6000611cda826112f5565b9150611ce5836112f5565b9250828203905081811115611cfd57611cfc611ca0565b5b92915050565b6000611d0e826112f5565b9150611d19836112f5565b9250828201905080821115611d3157611d30611ca0565b5b92915050565b7f54686520766f74696e672070726f6365737320686173206265656e20636f6d7060008201527f6c657465642e0000000000000000000000000000000000000000000000000000602082015250565b6000611d93602683611834565b9150611d9e82611d37565b604082019050919050565b60006020820190508181036000830152611dc281611d86565b9050919050565b7f596f75206861766520616c726561647920766f74656421000000000000000000600082015250565b6000611dff601783611834565b9150611e0a82611dc9565b602082019050919050565b60006020820190508181036000830152611e2e81611df2565b9050919050565b7f5468652063616e6469646174657320726567697374726174696f6e2070726f6360008201527f65737320686173206265656e20636f6d706c657465642e000000000000000000602082015250565b6000611e91603783611834565b9150611e9c82611e35565b604082019050919050565b60006020820190508181036000830152611ec081611e84565b9050919050565b7f54686520766f74696e672070726f63657373206861736e27742073746172746560008201527f64207965742e0000000000000000000000000000000000000000000000000000602082015250565b6000611f23602683611834565b9150611f2e82611ec7565b604082019050919050565b60006020820190508181036000830152611f5281611f16565b9050919050565b7f54686520766f74696e672070726f63657373206861736e277420636f6d706c6560008201527f746564207965742e000000000000000000000000000000000000000000000000602082015250565b6000611fb5602883611834565b9150611fc082611f59565b604082019050919050565b60006020820190508181036000830152611fe481611fa8565b9050919050565b7f5468652066696e616c2062616c6c6f7420726573756c7473206861766520616c60008201527f7265616479206265656e20697373756564210000000000000000000000000000602082015250565b6000612047603283611834565b915061205282611feb565b604082019050919050565b600060208201905081810360008301526120768161203a565b9050919050565b600060ff82169050919050565b60006120958261207d565b915060ff82036120a8576120a7611ca0565b5b600182019050919050565b7f54686520766f7465727320726567697374726174696f6e2070726f636573732060008201527f686173206265656e20636f6d706c657465642e00000000000000000000000000602082015250565b600061210f603383611834565b915061211a826120b3565b604082019050919050565b6000602082019050818103600083015261213e81612102565b9050919050565b7f54686520766f7465722068617320616c7265616479207265676973746572656460008201527f2e00000000000000000000000000000000000000000000000000000000000000602082015250565b60006121a1602183611834565b91506121ac82612145565b604082019050919050565b600060208201905081810360008301526121d081612194565b9050919050565b6000819050919050565b6121f26121ed826112f5565b6121d7565b82525050565b60008160601b9050919050565b6000612210826121f8565b9050919050565b600061222282612205565b9050919050565b61223a61223582611402565b612217565b82525050565b6000819050919050565b61225b612256826112dc565b612240565b82525050565b600061226d82866121e1565b60208201915061227d8285612229565b60148201915061228d828461224a565b60208201915081905094935050505056fea26469706673582212202e5a540c5b51bd090c8661720fd4d3f5bedd7637add010bc74b4cb1fac37a25664736f6c634300081c0033","opcodes":"PUSH1 0x80 PUSH1 0x40 MSTORE CALLVALUE DUP1 ISZERO PUSH2 0x10 JUMPI PUSH1 0x0 DUP1 REVERT JUMPDEST POP PUSH1 0x40 MLOAD PUSH2 0x24B0 CODESIZE SUB DUP1 PUSH2 0x24B0 DUP4 CODECOPY DUP2 DUP2 ADD PUSH1 0x40 MSTORE DUP2 ADD SWAP1 PUSH2 0x32 SWAP2 SWAP1 PUSH2 0x18D JUMP JUMPDEST CALLER PUSH1 0x0 DUP1 PUSH2 0x100 EXP DUP2 SLOAD DUP2 PUSH20 0xFFFFFFFFFFFFFFFFFFFFFFFFFFFFFFFFFFFFFFFF MUL NOT AND SWAP1 DUP4 PUSH20 0xFFFFFFFFFFFFFFFFFFFFFFFFFFFFFFFFFFFFFFFF AND MUL OR SWAP1 SSTORE POP DUP1 PUSH1 0x7 PUSH1 0x1 PUSH2 0x100 EXP DUP2 SLOAD DUP2 PUSH20 0xFFFFFFFFFFFFFFFFFFFFFFFFFFFFFFFFFFFFFFFF MUL NOT AND SWAP1 DUP4 PUSH20 0xFFFFFFFFFFFFFFFFFFFFFFFFFFFFFFFFFFFFFFFF AND MUL OR SWAP1 SSTORE POP PUSH1 0x0 PUSH1 0x2 DUP2 SWAP1 SSTORE POP DUP2 PUSH1 0x4 DUP2 SWAP1 SSTORE POP PUSH1 0x0 PUSH1 0x6 DUP2 SWAP1 SSTORE POP PUSH1 0x0 PUSH1 0x5 DUP2 SWAP1 SSTORE POP PUSH1 0x0 PUSH1 0x7 PUSH1 0x0 PUSH2 0x100 EXP DUP2 SLOAD DUP2 PUSH1 0xFF MUL NOT AND SWAP1 DUP4 ISZERO ISZERO MUL OR SWAP1 SSTORE POP POP POP PUSH2 0x1CD JUMP JUMPDEST PUSH1 0x0 DUP1 REVERT JUMPDEST PUSH1 0x0 DUP2 SWAP1 POP SWAP2 SWAP1 POP JUMP JUMPDEST PUSH2 0x10C DUP2 PUSH2 0xF9 JUMP JUMPDEST DUP2 EQ PUSH2 0x117 JUMPI PUSH1 0x0 DUP1 REVERT JUMPDEST POP JUMP JUMPDEST PUSH1 0x0 DUP2 MLOAD SWAP1 POP PUSH2 0x129 DUP2 PUSH2 0x103 JUMP JUMPDEST SWAP3 SWAP2 POP POP JUMP JUMPDEST PUSH1 0x0 PUSH20 0xFFFFFFFFFFFFFFFFFFFFFFFFFFFFFFFFFFFFFFFF DUP3 AND SWAP1 POP SWAP2 SWAP1 POP JUMP JUMPDEST PUSH1 0x0 PUSH2 0x15A DUP3 PUSH2 0x12F JUMP JUMPDEST SWAP1 POP SWAP2 SWAP1 POP JUMP JUMPDEST PUSH2 0x16A DUP2 PUSH2 0x14F JUMP JUMPDEST DUP2 EQ PUSH2 0x175 JUMPI PUSH1 0x0 DUP1 REVERT JUMPDEST POP JUMP JUMPDEST PUSH1 0x0 DUP2 MLOAD SWAP1 POP PUSH2 0x187 DUP2 PUSH2 0x161 JUMP JUMPDEST SWAP3 SWAP2 POP POP JUMP JUMPDEST PUSH1 0x0 DUP1 PUSH1 0x40 DUP4 DUP6 SUB SLT ISZERO PUSH2 0x1A4 JUMPI PUSH2 0x1A3 PUSH2 0xF4 JUMP JUMPDEST JUMPDEST PUSH1 0x0 PUSH2 0x1B2 DUP6 DUP3 DUP7 ADD PUSH2 0x11A JUMP JUMPDEST SWAP3 POP POP PUSH1 0x20 PUSH2 0x1C3 DUP6 DUP3 DUP7 ADD PUSH2 0x178 JUMP JUMPDEST SWAP2 POP POP SWAP3 POP SWAP3 SWAP1 POP JUMP JUMPDEST PUSH2 0x22D4 DUP1 PUSH2 0x1DC PUSH1 0x0 CODECOPY PUSH1 0x0 RETURN INVALID PUSH1 0x80 PUSH1 0x40 MSTORE CALLVALUE DUP1 ISZERO PUSH2 0x10 JUMPI PUSH1 0x0 DUP1 REVERT JUMPDEST POP PUSH1 0x4 CALLDATASIZE LT PUSH2 0x137 JUMPI PUSH1 0x0 CALLDATALOAD PUSH1 0xE0 SHR DUP1 PUSH4 0x3477EE2E GT PUSH2 0xB8 JUMPI DUP1 PUSH4 0xA0E5F890 GT PUSH2 0x7C JUMPI DUP1 PUSH4 0xA0E5F890 EQ PUSH2 0x33F JUMPI DUP1 PUSH4 0xE8D0827B EQ PUSH2 0x35D JUMPI DUP1 PUSH4 0xEAC69686 EQ PUSH2 0x38D JUMPI DUP1 PUSH4 0xECCA031F EQ PUSH2 0x3AB JUMPI DUP1 PUSH4 0xED8A1608 EQ PUSH2 0x3DB JUMPI DUP1 PUSH4 0xF1F710D5 EQ PUSH2 0x3F7 JUMPI PUSH2 0x137 JUMP JUMPDEST DUP1 PUSH4 0x3477EE2E EQ PUSH2 0x29A JUMPI DUP1 PUSH4 0x851B6EF2 EQ PUSH2 0x2CB JUMPI DUP1 PUSH4 0x8B51EBFF EQ PUSH2 0x2E9 JUMPI DUP1 PUSH4 0x8EB6F9EB EQ PUSH2 0x305 JUMPI DUP1 PUSH4 0x98C07938 EQ PUSH2 0x321 JUMPI PUSH2 0x137 JUMP JUMPDEST DUP1 PUSH4 0x24F3DA33 GT PUSH2 0xFF JUMPI DUP1 PUSH4 0x24F3DA33 EQ PUSH2 0x1F2 JUMPI DUP1 PUSH4 0x2D35A8A2 EQ PUSH2 0x222 JUMPI DUP1 PUSH4 0x2E4176CF EQ PUSH2 0x240 JUMPI DUP1 PUSH4 0x3197CBB6 EQ PUSH2 0x25E JUMPI DUP1 PUSH4 0x345EACF2 EQ PUSH2 0x27C JUMPI PUSH2 0x137 JUMP JUMPDEST DUP1 PUSH4 0x17CD827 EQ PUSH2 0x13C JUMPI DUP1 PUSH4 0x6A49FCE EQ PUSH2 0x16C JUMPI DUP1 PUSH4 0x9BD0950 EQ PUSH2 0x18A JUMPI DUP1 PUSH4 0x18034FE4 EQ PUSH2 0x1BA JUMPI DUP1 PUSH4 0x1927F068 EQ PUSH2 0x1D6 JUMPI JUMPDEST PUSH1 0x0 DUP1 REVERT JUMPDEST PUSH2 0x156 PUSH1 0x4 DUP1 CALLDATASIZE SUB DUP2 ADD SWAP1 PUSH2 0x151 SWAP2 SWAP1 PUSH2 0x1211 JUMP JUMPDEST PUSH2 0x415 JUMP JUMPDEST PUSH1 0x40 MLOAD PUSH2 0x163 SWAP2 SWAP1 PUSH2 0x1295 JUMP JUMPDEST PUSH1 0x40 MLOAD DUP1 SWAP2 SUB SWAP1 RETURN JUMPDEST PUSH2 0x174 PUSH2 0x58B JUMP JUMPDEST PUSH1 0x40 MLOAD PUSH2 0x181 SWAP2 SWAP1 PUSH2 0x13C0 JUMP JUMPDEST PUSH1 0x40 MLOAD DUP1 SWAP2 SUB SWAP1 RETURN JUMPDEST PUSH2 0x1A4 PUSH1 0x4 DUP1 CALLDATASIZE SUB DUP2 ADD SWAP1 PUSH2 0x19F SWAP2 SWAP1 PUSH2 0x1440 JUMP JUMPDEST PUSH2 0x5FE JUMP JUMPDEST PUSH1 0x40 MLOAD PUSH2 0x1B1 SWAP2 SWAP1 PUSH2 0x147C JUMP JUMPDEST PUSH1 0x40 MLOAD DUP1 SWAP2 SUB SWAP1 RETURN JUMPDEST PUSH2 0x1D4 PUSH1 0x4 DUP1 CALLDATASIZE SUB DUP2 ADD SWAP1 PUSH2 0x1CF SWAP2 SWAP1 PUSH2 0x14C3 JUMP JUMPDEST PUSH2 0x6CB JUMP JUMPDEST STOP JUMPDEST PUSH2 0x1F0 PUSH1 0x4 DUP1 CALLDATASIZE SUB DUP2 ADD SWAP1 PUSH2 0x1EB SWAP2 SWAP1 PUSH2 0x1211 JUMP JUMPDEST PUSH2 0x7EA JUMP JUMPDEST STOP JUMPDEST PUSH2 0x20C PUSH1 0x4 DUP1 CALLDATASIZE SUB DUP2 ADD SWAP1 PUSH2 0x207 SWAP2 SWAP1 PUSH2 0x14C3 JUMP JUMPDEST PUSH2 0xB17 JUMP JUMPDEST PUSH1 0x40 MLOAD PUSH2 0x219 SWAP2 SWAP1 PUSH2 0x14FF JUMP JUMPDEST PUSH1 0x40 MLOAD DUP1 SWAP2 SUB SWAP1 RETURN JUMPDEST PUSH2 0x22A PUSH2 0xB3B JUMP JUMPDEST PUSH1 0x40 MLOAD PUSH2 0x237 SWAP2 SWAP1 PUSH2 0x14FF JUMP JUMPDEST PUSH1 0x40 MLOAD DUP1 SWAP2 SUB SWAP1 RETURN JUMPDEST PUSH2 0x248 PUSH2 0xB41 JUMP JUMPDEST PUSH1 0x40 MLOAD PUSH2 0x255 SWAP2 SWAP1 PUSH2 0x1529 JUMP JUMPDEST PUSH1 0x40 MLOAD DUP1 SWAP2 SUB SWAP1 RETURN JUMPDEST PUSH2 0x266 PUSH2 0xB65 JUMP JUMPDEST PUSH1 0x40 MLOAD PUSH2 0x273 SWAP2 SWAP1 PUSH2 0x14FF JUMP JUMPDEST PUSH1 0x40 MLOAD DUP1 SWAP2 SUB SWAP1 RETURN JUMPDEST PUSH2 0x284 PUSH2 0xB6B JUMP JUMPDEST PUSH1 0x40 MLOAD PUSH2 0x291 SWAP2 SWAP1 PUSH2 0x14FF JUMP JUMPDEST PUSH1 0x40 MLOAD DUP1 SWAP2 SUB SWAP1 RETURN JUMPDEST PUSH2 0x2B4 PUSH1 0x4 DUP1 CALLDATASIZE SUB DUP2 ADD SWAP1 PUSH2 0x2AF SWAP2 SWAP1 PUSH2 0x14C3 JUMP JUMPDEST PUSH2 0xB71 JUMP JUMPDEST PUSH1 0x40 MLOAD PUSH2 0x2C2 SWAP3 SWAP2 SWAP1 PUSH2 0x1544 JUMP JUMPDEST PUSH1 0x40 MLOAD DUP1 SWAP2 SUB SWAP1 RETURN JUMPDEST PUSH2 0x2D3 PUSH2 0xBA5 JUMP JUMPDEST PUSH1 0x40 MLOAD PUSH2 0x2E0 SWAP2 SWAP1 PUSH2 0x161C JUMP JUMPDEST PUSH1 0x40 MLOAD DUP1 SWAP2 SUB SWAP1 RETURN JUMPDEST PUSH2 0x303 PUSH1 0x4 DUP1 CALLDATASIZE SUB DUP2 ADD SWAP1 PUSH2 0x2FE SWAP2 SWAP1 PUSH2 0x166A JUMP JUMPDEST PUSH2 0xBFD JUMP JUMPDEST STOP JUMPDEST PUSH2 0x31F PUSH1 0x4 DUP1 CALLDATASIZE SUB DUP2 ADD SWAP1 PUSH2 0x31A SWAP2 SWAP1 PUSH2 0x17EB JUMP JUMPDEST PUSH2 0xD44 JUMP JUMPDEST STOP JUMPDEST PUSH2 0x329 PUSH2 0xF3A JUMP JUMPDEST PUSH1 0x40 MLOAD PUSH2 0x336 SWAP2 SWAP1 PUSH2 0x14FF JUMP JUMPDEST PUSH1 0x40 MLOAD DUP1 SWAP2 SUB SWAP1 RETURN JUMPDEST PUSH2 0x347 PUSH2 0xF40 JUMP JUMPDEST PUSH1 0x40 MLOAD PUSH2 0x354 SWAP2 SWAP1 PUSH2 0x1529 JUMP JUMPDEST PUSH1 0x40 MLOAD DUP1 SWAP2 SUB SWAP1 RETURN JUMPDEST PUSH2 0x377 PUSH1 0x4 DUP1 CALLDATASIZE SUB DUP2 ADD SWAP1 PUSH2 0x372 SWAP2 SWAP1 PUSH2 0x14C3 JUMP JUMPDEST PUSH2 0xF66 JUMP JUMPDEST PUSH1 0x40 MLOAD PUSH2 0x384 SWAP2 SWAP1 PUSH2 0x1295 JUMP JUMPDEST PUSH1 0x40 MLOAD DUP1 SWAP2 SUB SWAP1 RETURN JUMPDEST PUSH2 0x395 PUSH2 0xF86 JUMP JUMPDEST PUSH1 0x40 MLOAD PUSH2 0x3A2 SWAP2 SWAP1 PUSH2 0x14FF JUMP JUMPDEST PUSH1 0x40 MLOAD DUP1 SWAP2 SUB SWAP1 RETURN JUMPDEST PUSH2 0x3C5 PUSH1 0x4 DUP1 CALLDATASIZE SUB DUP2 ADD SWAP1 PUSH2 0x3C0 SWAP2 SWAP1 PUSH2 0x14C3 JUMP JUMPDEST PUSH2 0xF8C JUMP JUMPDEST PUSH1 0x40 MLOAD PUSH2 0x3D2 SWAP2 SWAP1 PUSH2 0x1295 JUMP JUMPDEST PUSH1 0x40 MLOAD DUP1 SWAP2 SUB SWAP1 RETURN JUMPDEST PUSH2 0x3F5 PUSH1 0x4 DUP1 CALLDATASIZE SUB DUP2 ADD SWAP1 PUSH2 0x3F0 SWAP2 SWAP1 PUSH2 0x1440 JUMP JUMPDEST PUSH2 0xFAC JUMP JUMPDEST STOP JUMPDEST PUSH2 0x3FF PUSH2 0x11A1 JUMP JUMPDEST PUSH1 0x40 MLOAD PUSH2 0x40C SWAP2 SWAP1 PUSH2 0x1295 JUMP JUMPDEST PUSH1 0x40 MLOAD DUP1 SWAP2 SUB SWAP1 RETURN JUMPDEST PUSH1 0x0 DUP1 PUSH1 0x2 SLOAD SUB PUSH2 0x45B JUMPI PUSH1 0x40 MLOAD PUSH32 0x8C379A000000000000000000000000000000000000000000000000000000000 DUP2 MSTORE PUSH1 0x4 ADD PUSH2 0x452 SWAP1 PUSH2 0x18B7 JUMP JUMPDEST PUSH1 0x40 MLOAD DUP1 SWAP2 SUB SWAP1 REVERT JUMPDEST PUSH1 0x0 PUSH1 0x7 PUSH1 0x1 SWAP1 SLOAD SWAP1 PUSH2 0x100 EXP SWAP1 DIV PUSH20 0xFFFFFFFFFFFFFFFFFFFFFFFFFFFFFFFFFFFFFFFF AND PUSH20 0xFFFFFFFFFFFFFFFFFFFFFFFFFFFFFFFFFFFFFFFF AND PUSH4 0xF5C9D69E DUP8 DUP8 DUP8 DUP8 PUSH1 0x40 MLOAD DUP6 PUSH4 0xFFFFFFFF AND PUSH1 0xE0 SHL DUP2 MSTORE PUSH1 0x4 ADD PUSH2 0x4BE SWAP5 SWAP4 SWAP3 SWAP2 SWAP1 PUSH2 0x19AF JUMP JUMPDEST PUSH1 0x20 PUSH1 0x40 MLOAD DUP1 DUP4 SUB DUP2 DUP7 GAS STATICCALL ISZERO DUP1 ISZERO PUSH2 0x4DB JUMPI RETURNDATASIZE PUSH1 0x0 DUP1 RETURNDATACOPY RETURNDATASIZE PUSH1 0x0 REVERT JUMPDEST POP POP POP POP PUSH1 0x40 MLOAD RETURNDATASIZE PUSH1 0x1F NOT PUSH1 0x1F DUP3 ADD AND DUP3 ADD DUP1 PUSH1 0x40 MSTORE POP DUP2 ADD SWAP1 PUSH2 0x4FF SWAP2 SWAP1 PUSH2 0x1A22 JUMP JUMPDEST SWAP1 POP DUP1 PUSH2 0x541 JUMPI PUSH1 0x40 MLOAD PUSH32 0x8C379A000000000000000000000000000000000000000000000000000000000 DUP2 MSTORE PUSH1 0x4 ADD PUSH2 0x538 SWAP1 PUSH2 0x1A9B JUMP JUMPDEST PUSH1 0x40 MLOAD DUP1 SWAP2 SUB SWAP1 REVERT JUMPDEST PUSH1 0x0 DUP4 PUSH1 0x1 PUSH1 0x2 DUP2 LT PUSH2 0x557 JUMPI PUSH2 0x556 PUSH2 0x1ABB JUMP JUMPDEST JUMPDEST PUSH1 0x20 MUL ADD CALLDATALOAD SWAP1 POP PUSH1 0x9 PUSH1 0x0 DUP3 DUP2 MSTORE PUSH1 0x20 ADD SWAP1 DUP2 MSTORE PUSH1 0x20 ADD PUSH1 0x0 KECCAK256 PUSH1 0x0 SWAP1 SLOAD SWAP1 PUSH2 0x100 EXP SWAP1 DIV PUSH1 0xFF AND SWAP3 POP POP POP SWAP5 SWAP4 POP POP POP POP JUMP JUMPDEST PUSH1 0x60 PUSH1 0x1 DUP1 SLOAD DUP1 PUSH1 0x20 MUL PUSH1 0x20 ADD PUSH1 0x40 MLOAD SWAP1 DUP2 ADD PUSH1 0x40 MSTORE DUP1 SWAP3 SWAP2 SWAP1 DUP2 DUP2 MSTORE PUSH1 0x20 ADD PUSH1 0x0 SWAP1 JUMPDEST DUP3 DUP3 LT ISZERO PUSH2 0x5F5 JUMPI DUP4 DUP3 SWAP1 PUSH1 0x0 MSTORE PUSH1 0x20 PUSH1 0x0 KECCAK256 SWAP1 PUSH1 0x2 MUL ADD PUSH1 0x40 MLOAD DUP1 PUSH1 0x40 ADD PUSH1 0x40 MSTORE SWAP1 DUP2 PUSH1 0x0 DUP3 ADD SLOAD DUP2 MSTORE PUSH1 0x20 ADD PUSH1 0x1 DUP3 ADD SLOAD DUP2 MSTORE POP POP DUP2 MSTORE PUSH1 0x20 ADD SWAP1 PUSH1 0x1 ADD SWAP1 PUSH2 0x5AF JUMP JUMPDEST POP POP POP POP SWAP1 POP SWAP1 JUMP JUMPDEST PUSH1 0x0 DUP1 PUSH1 0x0 SHL PUSH1 0x8 PUSH1 0x0 DUP5 PUSH20 0xFFFFFFFFFFFFFFFFFFFFFFFFFFFFFFFFFFFFFFFF AND PUSH20 0xFFFFFFFFFFFFFFFFFFFFFFFFFFFFFFFFFFFFFFFF AND DUP2 MSTORE PUSH1 0x20 ADD SWAP1 DUP2 MSTORE PUSH1 0x20 ADD PUSH1 0x0 KECCAK256 SLOAD SUB PUSH2 0x684 JUMPI PUSH1 0x40 MLOAD PUSH32 0x8C379A000000000000000000000000000000000000000000000000000000000 DUP2 MSTORE PUSH1 0x4 ADD PUSH2 0x67B SWAP1 PUSH2 0x1B5C JUMP JUMPDEST PUSH1 0x40 MLOAD DUP1 SWAP2 SUB SWAP1 REVERT JUMPDEST PUSH1 0x8 PUSH1 0x0 DUP4 PUSH20 0xFFFFFFFFFFFFFFFFFFFFFFFFFFFFFFFFFFFFFFFF AND PUSH20 0xFFFFFFFFFFFFFFFFFFFFFFFFFFFFFFFFFFFFFFFF AND DUP2 MSTORE PUSH1 0x20 ADD SWAP1 DUP2 MSTORE PUSH1 0x20 ADD PUSH1 0x0 KECCAK256 SLOAD SWAP1 POP SWAP2 SWAP1 POP JUMP JUMPDEST PUSH1 0x0 DUP1 SLOAD SWAP1 PUSH2 0x100 EXP SWAP1 DIV PUSH20 0xFFFFFFFFFFFFFFFFFFFFFFFFFFFFFFFFFFFFFFFF AND PUSH20 0xFFFFFFFFFFFFFFFFFFFFFFFFFFFFFFFFFFFFFFFF AND CALLER PUSH20 0xFFFFFFFFFFFFFFFFFFFFFFFFFFFFFFFFFFFFFFFF AND EQ PUSH2 0x759 JUMPI PUSH1 0x40 MLOAD PUSH32 0x8C379A000000000000000000000000000000000000000000000000000000000 DUP2 MSTORE PUSH1 0x4 ADD PUSH2 0x750 SWAP1 PUSH2 0x1BEE JUMP JUMPDEST PUSH1 0x40 MLOAD DUP1 SWAP2 SUB SWAP1 REVERT JUMPDEST PUSH1 0x0 PUSH1 0x2 SLOAD EQ PUSH2 0x79E JUMPI PUSH1 0x40 MLOAD PUSH32 0x8C379A000000000000000000000000000000000000000000000000000000000 DUP2 MSTORE PUSH1 0x4 ADD PUSH2 0x795 SWAP1 PUSH2 0x1C80 JUMP JUMPDEST PUSH1 0x40 MLOAD DUP1 SWAP2 SUB SWAP1 REVERT JUMPDEST TIMESTAMP PUSH1 0x2 DUP2 SWAP1 SSTORE POP DUP1 PUSH1 0x2 SLOAD GT ISZERO PUSH2 0x7D1 JUMPI DUP1 PUSH1 0x2 SLOAD PUSH2 0x7BD SWAP2 SWAP1 PUSH2 0x1CCF JUMP JUMPDEST PUSH1 0x4 SLOAD PUSH2 0x7CA SWAP2 SWAP1 PUSH2 0x1CCF JUMP JUMPDEST PUSH1 0x4 DUP2 SWAP1 SSTORE POP JUMPDEST PUSH1 0x4 SLOAD PUSH1 0x2 SLOAD PUSH2 0x7E1 SWAP2 SWAP1 PUSH2 0x1D03 JUMP JUMPDEST PUSH1 0x3 DUP2 SWAP1 SSTORE POP POP JUMP JUMPDEST PUSH1 0x0 PUSH1 0x2 SLOAD SUB PUSH2 0x82F JUMPI PUSH1 0x40 MLOAD PUSH32 0x8C379A000000000000000000000000000000000000000000000000000000000 DUP2 MSTORE PUSH1 0x4 ADD PUSH2 0x826 SWAP1 PUSH2 0x18B7 JUMP JUMPDEST PUSH1 0x40 MLOAD DUP1 SWAP2 SUB SWAP1 REVERT JUMPDEST PUSH1 0x3 SLOAD TIMESTAMP GT ISZERO PUSH2 0x874 JUMPI PUSH1 0x40 MLOAD PUSH32 0x8C379A000000000000000000000000000000000000000000000000000000000 DUP2 MSTORE PUSH1 0x4 ADD PUSH2 0x86B SWAP1 PUSH2 0x1DA9 JUMP JUMPDEST PUSH1 0x40 MLOAD DUP1 SWAP2 SUB SWAP1 REVERT JUMPDEST PUSH1 0x0 PUSH1 0x7 PUSH1 0x1 SWAP1 SLOAD SWAP1 PUSH2 0x100 EXP SWAP1 DIV PUSH20 0xFFFFFFFFFFFFFFFFFFFFFFFFFFFFFFFFFFFFFFFF AND PUSH20 0xFFFFFFFFFFFFFFFFFFFFFFFFFFFFFFFFFFFFFFFF AND PUSH4 0xF5C9D69E DUP7 DUP7 DUP7 DUP7 PUSH1 0x40 MLOAD DUP6 PUSH4 0xFFFFFFFF AND PUSH1 0xE0 SHL DUP2 MSTORE PUSH1 0x4 ADD PUSH2 0x8D7 SWAP5 SWAP4 SWAP3 SWAP2 SWAP1 PUSH2 0x19AF JUMP JUMPDEST PUSH1 0x20 PUSH1 0x40 MLOAD DUP1 DUP4 SUB DUP2 DUP7 GAS STATICCALL ISZERO DUP1 ISZERO PUSH2 0x8F4 JUMPI RETURNDATASIZE PUSH1 0x0 DUP1 RETURNDATACOPY RETURNDATASIZE PUSH1 0x0 REVERT JUMPDEST POP POP POP POP PUSH1 0x40 MLOAD RETURNDATASIZE PUSH1 0x1F NOT PUSH1 0x1F DUP3 ADD AND DUP3 ADD DUP1 PUSH1 0x40 MSTORE POP DUP2 ADD SWAP1 PUSH2 0x918 SWAP2 SWAP1 PUSH2 0x1A22 JUMP JUMPDEST SWAP1 POP PUSH32 0xB6030296ED6D28F593D0C257C080EF243CD60EB419E82D45D9E530C593915102 DUP2 PUSH1 0x40 MLOAD PUSH2 0x949 SWAP2 SWAP1 PUSH2 0x1295 JUMP JUMPDEST PUSH1 0x40 MLOAD DUP1 SWAP2 SUB SWAP1 LOG1 DUP1 PUSH2 0x991 JUMPI PUSH1 0x40 MLOAD PUSH32 0x8C379A000000000000000000000000000000000000000000000000000000000 DUP2 MSTORE PUSH1 0x4 ADD PUSH2 0x988 SWAP1 PUSH2 0x1A9B JUMP JUMPDEST PUSH1 0x40 MLOAD DUP1 SWAP2 SUB SWAP1 REVERT JUMPDEST PUSH1 0x0 DUP3 PUSH1 0x0 PUSH1 0x2 DUP2 LT PUSH2 0x9A7 JUMPI PUSH2 0x9A6 PUSH2 0x1ABB JUMP JUMPDEST JUMPDEST PUSH1 0x20 MUL ADD CALLDATALOAD SWAP1 POP PUSH1 0x0 DUP4 PUSH1 0x1 PUSH1 0x2 DUP2 LT PUSH2 0x9C4 JUMPI PUSH2 0x9C3 PUSH2 0x1ABB JUMP JUMPDEST JUMPDEST PUSH1 0x20 MUL ADD CALLDATALOAD SWAP1 POP PUSH1 0x9 PUSH1 0x0 DUP3 DUP2 MSTORE PUSH1 0x20 ADD SWAP1 DUP2 MSTORE PUSH1 0x20 ADD PUSH1 0x0 KECCAK256 PUSH1 0x0 SWAP1 SLOAD SWAP1 PUSH2 0x100 EXP SWAP1 DIV PUSH1 0xFF AND ISZERO PUSH2 0xA2C JUMPI PUSH1 0x40 MLOAD PUSH32 0x8C379A000000000000000000000000000000000000000000000000000000000 DUP2 MSTORE PUSH1 0x4 ADD PUSH2 0xA23 SWAP1 PUSH2 0x1E15 JUMP JUMPDEST PUSH1 0x40 MLOAD DUP1 SWAP2 SUB SWAP1 REVERT JUMPDEST PUSH1 0xA PUSH1 0x0 DUP4 DUP2 MSTORE PUSH1 0x20 ADD SWAP1 DUP2 MSTORE PUSH1 0x20 ADD PUSH1 0x0 KECCAK256 PUSH1 0x0 SWAP1 SLOAD SWAP1 PUSH2 0x100 EXP SWAP1 DIV PUSH1 0xFF AND ISZERO PUSH2 0xA8D JUMPI PUSH1 0x40 MLOAD PUSH32 0x8C379A000000000000000000000000000000000000000000000000000000000 DUP2 MSTORE PUSH1 0x4 ADD PUSH2 0xA84 SWAP1 PUSH2 0x1E15 JUMP JUMPDEST PUSH1 0x40 MLOAD DUP1 SWAP2 SUB SWAP1 REVERT JUMPDEST PUSH1 0x1 PUSH1 0x9 PUSH1 0x0 DUP4 DUP2 MSTORE PUSH1 0x20 ADD SWAP1 DUP2 MSTORE PUSH1 0x20 ADD PUSH1 0x0 KECCAK256 PUSH1 0x0 PUSH2 0x100 EXP DUP2 SLOAD DUP2 PUSH1 0xFF MUL NOT AND SWAP1 DUP4 ISZERO ISZERO MUL OR SWAP1 SSTORE POP PUSH1 0x1 PUSH1 0xA PUSH1 0x0 DUP5 DUP2 MSTORE PUSH1 0x20 ADD SWAP1 DUP2 MSTORE PUSH1 0x20 ADD PUSH1 0x0 KECCAK256 PUSH1 0x0 PUSH2 0x100 EXP DUP2 SLOAD DUP2 PUSH1 0xFF MUL NOT AND SWAP1 DUP4 ISZERO ISZERO MUL OR SWAP1 SSTORE POP PUSH1 0xB DUP3 SWAP1 DUP1 PUSH1 0x1 DUP2 SLOAD ADD DUP1 DUP3 SSTORE DUP1 SWAP2 POP POP PUSH1 0x1 SWAP1 SUB SWAP1 PUSH1 0x0 MSTORE PUSH1 0x20 PUSH1 0x0 KECCAK256 ADD PUSH1 0x0 SWAP1 SWAP2 SWAP1 SWAP2 SWAP1 SWAP2 POP SSTORE POP POP POP POP POP POP POP JUMP JUMPDEST PUSH1 0xB DUP2 DUP2 SLOAD DUP2 LT PUSH2 0xB27 JUMPI PUSH1 0x0 DUP1 REVERT JUMPDEST SWAP1 PUSH1 0x0 MSTORE PUSH1 0x20 PUSH1 0x0 KECCAK256 ADD PUSH1 0x0 SWAP2 POP SWAP1 POP SLOAD DUP2 JUMP JUMPDEST PUSH1 0x6 SLOAD DUP2 JUMP JUMPDEST PUSH1 0x0 DUP1 SLOAD SWAP1 PUSH2 0x100 EXP SWAP1 DIV PUSH20 0xFFFFFFFFFFFFFFFFFFFFFFFFFFFFFFFFFFFFFFFF AND DUP2 JUMP JUMPDEST PUSH1 0x3 SLOAD DUP2 JUMP JUMPDEST PUSH1 0x2 SLOAD DUP2 JUMP JUMPDEST PUSH1 0x1 DUP2 DUP2 SLOAD DUP2 LT PUSH2 0xB81 JUMPI PUSH1 0x0 DUP1 REVERT JUMPDEST SWAP1 PUSH1 0x0 MSTORE PUSH1 0x20 PUSH1 0x0 KECCAK256 SWAP1 PUSH1 0x2 MUL ADD PUSH1 0x0 SWAP2 POP SWAP1 POP DUP1 PUSH1 0x0 ADD SLOAD SWAP1 DUP1 PUSH1 0x1 ADD SLOAD SWAP1 POP DUP3 JUMP JUMPDEST PUSH1 0x60 PUSH1 0xB DUP1 SLOAD DUP1 PUSH1 0x20 MUL PUSH1 0x20 ADD PUSH1 0x40 MLOAD SWAP1 DUP2 ADD PUSH1 0x40 MSTORE DUP1 SWAP3 SWAP2 SWAP1 DUP2 DUP2 MSTORE PUSH1 0x20 ADD DUP3 DUP1 SLOAD DUP1 ISZERO PUSH2 0xBF3 JUMPI PUSH1 0x20 MUL DUP3 ADD SWAP2 SWAP1 PUSH1 0x0 MSTORE PUSH1 0x20 PUSH1 0x0 KECCAK256 SWAP1 JUMPDEST DUP2 SLOAD DUP2 MSTORE PUSH1 0x20 ADD SWAP1 PUSH1 0x1 ADD SWAP1 DUP1 DUP4 GT PUSH2 0xBDF JUMPI JUMPDEST POP POP POP POP POP SWAP1 POP SWAP1 JUMP JUMPDEST PUSH1 0x0 DUP1 SLOAD SWAP1 PUSH2 0x100 EXP SWAP1 DIV PUSH20 0xFFFFFFFFFFFFFFFFFFFFFFFFFFFFFFFFFFFFFFFF AND PUSH20 0xFFFFFFFFFFFFFFFFFFFFFFFFFFFFFFFFFFFFFFFF AND CALLER PUSH20 0xFFFFFFFFFFFFFFFFFFFFFFFFFFFFFFFFFFFFFFFF AND EQ PUSH2 0xC8B JUMPI PUSH1 0x40 MLOAD PUSH32 0x8C379A000000000000000000000000000000000000000000000000000000000 DUP2 MSTORE PUSH1 0x4 ADD PUSH2 0xC82 SWAP1 PUSH2 0x1BEE JUMP JUMPDEST PUSH1 0x40 MLOAD DUP1 SWAP2 SUB SWAP1 REVERT JUMPDEST PUSH1 0x0 PUSH1 0x2 SLOAD EQ PUSH2 0xCD0 JUMPI PUSH1 0x40 MLOAD PUSH32 0x8C379A000000000000000000000000000000000000000000000000000000000 DUP2 MSTORE PUSH1 0x4 ADD PUSH2 0xCC7 SWAP1 PUSH2 0x1EA7 JUMP JUMPDEST PUSH1 0x40 MLOAD DUP1 SWAP2 SUB SWAP1 REVERT JUMPDEST PUSH1 0x1 PUSH1 0x40 MLOAD DUP1 PUSH1 0x40 ADD PUSH1 0x40 MSTORE DUP1 DUP4 DUP2 MSTORE PUSH1 0x20 ADD PUSH1 0x0 DUP2 MSTORE POP SWAP1 DUP1 PUSH1 0x1 DUP2 SLOAD ADD DUP1 DUP3 SSTORE DUP1 SWAP2 POP POP PUSH1 0x1 SWAP1 SUB SWAP1 PUSH1 0x0 MSTORE PUSH1 0x20 PUSH1 0x0 KECCAK256 SWAP1 PUSH1 0x2 MUL ADD PUSH1 0x0 SWAP1 SWAP2 SWAP1 SWAP2 SWAP1 SWAP2 POP PUSH1 0x0 DUP3 ADD MLOAD DUP2 PUSH1 0x0 ADD SSTORE PUSH1 0x20 DUP3 ADD MLOAD DUP2 PUSH1 0x1 ADD SSTORE POP POP PUSH1 0x1 PUSH1 0x6 PUSH1 0x0 DUP3 DUP3 SLOAD PUSH2 0xD3A SWAP2 SWAP1 PUSH2 0x1D03 JUMP JUMPDEST SWAP3 POP POP DUP2 SWAP1 SSTORE POP POP JUMP JUMPDEST PUSH1 0x0 DUP1 SLOAD SWAP1 PUSH2 0x100 EXP SWAP1 DIV PUSH20 0xFFFFFFFFFFFFFFFFFFFFFFFFFFFFFFFFFFFFFFFF AND PUSH20 0xFFFFFFFFFFFFFFFFFFFFFFFFFFFFFFFFFFFFFFFF AND CALLER PUSH20 0xFFFFFFFFFFFFFFFFFFFFFFFFFFFFFFFFFFFFFFFF AND EQ PUSH2 0xDD2 JUMPI PUSH1 0x40 MLOAD PUSH32 0x8C379A000000000000000000000000000000000000000000000000000000000 DUP2 MSTORE PUSH1 0x4 ADD PUSH2 0xDC9 SWAP1 PUSH2 0x1BEE JUMP JUMPDEST PUSH1 0x40 MLOAD DUP1 SWAP2 SUB SWAP1 REVERT JUMPDEST PUSH1 0x0 PUSH1 0x2 SLOAD SUB PUSH2 0xE17 JUMPI PUSH1 0x40 MLOAD PUSH32 0x8C379A000000000000000000000000000000000000000000000000000000000 DUP2 MSTORE PUSH1 0x4 ADD PUSH2 0xE0E SWAP1 PUSH2 0x1F39 JUMP JUMPDEST PUSH1 0x40 MLOAD DUP1 SWAP2 SUB SWAP1 REVERT JUMPDEST PUSH1 0x3 SLOAD TIMESTAMP GT PUSH2 0xE5B JUMPI PUSH1 0x40 MLOAD PUSH32 0x8C379A000000000000000000000000000000000000000000000000000000000 DUP2 MSTORE PUSH1 0x4 ADD PUSH2 0xE52 SWAP1 PUSH2 0x1FCB JUMP JUMPDEST PUSH1 0x40 MLOAD DUP1 SWAP2 SUB SWAP1 REVERT JUMPDEST PUSH1 0x7 PUSH1 0x0 SWAP1 SLOAD SWAP1 PUSH2 0x100 EXP SWAP1 DIV PUSH1 0xFF AND ISZERO PUSH2 0xEAB JUMPI PUSH1 0x40 MLOAD PUSH32 0x8C379A000000000000000000000000000000000000000000000000000000000 DUP2 MSTORE PUSH1 0x4 ADD PUSH2 0xEA2 SWAP1 PUSH2 0x205D JUMP JUMPDEST PUSH1 0x40 MLOAD DUP1 SWAP2 SUB SWAP1 REVERT JUMPDEST PUSH1 0x0 JUMPDEST PUSH1 0x1 DUP1 SLOAD SWAP1 POP DUP2 PUSH1 0xFF AND LT ISZERO PUSH2 0xF1B JUMPI DUP2 DUP2 PUSH1 0xFF AND DUP2 MLOAD DUP2 LT PUSH2 0xED4 JUMPI PUSH2 0xED3 PUSH2 0x1ABB JUMP JUMPDEST JUMPDEST PUSH1 0x20 MUL PUSH1 0x20 ADD ADD MLOAD PUSH1 0x1 DUP3 PUSH1 0xFF AND DUP2 SLOAD DUP2 LT PUSH2 0xEF3 JUMPI PUSH2 0xEF2 PUSH2 0x1ABB JUMP JUMPDEST JUMPDEST SWAP1 PUSH1 0x0 MSTORE PUSH1 0x20 PUSH1 0x0 KECCAK256 SWAP1 PUSH1 0x2 MUL ADD PUSH1 0x1 ADD DUP2 SWAP1 SSTORE POP DUP1 DUP1 PUSH2 0xF13 SWAP1 PUSH2 0x208A JUMP JUMPDEST SWAP2 POP POP PUSH2 0xEAE JUMP JUMPDEST POP PUSH1 0x1 PUSH1 0x7 PUSH1 0x0 PUSH2 0x100 EXP DUP2 SLOAD DUP2 PUSH1 0xFF MUL NOT AND SWAP1 DUP4 ISZERO ISZERO MUL OR SWAP1 SSTORE POP POP JUMP JUMPDEST PUSH1 0x5 SLOAD DUP2 JUMP JUMPDEST PUSH1 0x7 PUSH1 0x1 SWAP1 SLOAD SWAP1 PUSH2 0x100 EXP SWAP1 DIV PUSH20 0xFFFFFFFFFFFFFFFFFFFFFFFFFFFFFFFFFFFFFFFF AND DUP2 JUMP JUMPDEST PUSH1 0xA PUSH1 0x20 MSTORE DUP1 PUSH1 0x0 MSTORE PUSH1 0x40 PUSH1 0x0 KECCAK256 PUSH1 0x0 SWAP2 POP SLOAD SWAP1 PUSH2 0x100 EXP SWAP1 DIV PUSH1 0xFF AND DUP2 JUMP JUMPDEST PUSH1 0x4 SLOAD DUP2 JUMP JUMPDEST PUSH1 0x9 PUSH1 0x20 MSTORE DUP1 PUSH1 0x0 MSTORE PUSH1 0x40 PUSH1 0x0 KECCAK256 PUSH1 0x0 SWAP2 POP SLOAD SWAP1 PUSH2 0x100 EXP SWAP1 DIV PUSH1 0xFF AND DUP2 JUMP JUMPDEST PUSH1 0x0 DUP1 SLOAD SWAP1 PUSH2 0x100 EXP SWAP1 DIV PUSH20 0xFFFFFFFFFFFFFFFFFFFFFFFFFFFFFFFFFFFFFFFF AND PUSH20 0xFFFFFFFFFFFFFFFFFFFFFFFFFFFFFFFFFFFFFFFF AND CALLER PUSH20 0xFFFFFFFFFFFFFFFFFFFFFFFFFFFFFFFFFFFFFFFF AND EQ PUSH2 0x103A JUMPI PUSH1 0x40 MLOAD PUSH32 0x8C379A000000000000000000000000000000000000000000000000000000000 DUP2 MSTORE PUSH1 0x4 ADD PUSH2 0x1031 SWAP1 PUSH2 0x1BEE JUMP JUMPDEST PUSH1 0x40 MLOAD DUP1 SWAP2 SUB SWAP1 REVERT JUMPDEST PUSH1 0x0 PUSH1 0x2 SLOAD EQ PUSH2 0x107F JUMPI PUSH1 0x40 MLOAD PUSH32 0x8C379A000000000000000000000000000000000000000000000000000000000 DUP2 MSTORE PUSH1 0x4 ADD PUSH2 0x1076 SWAP1 PUSH2 0x2125 JUMP JUMPDEST PUSH1 0x40 MLOAD DUP1 SWAP2 SUB SWAP1 REVERT JUMPDEST PUSH1 0x0 DUP1 SHL PUSH1 0x8 PUSH1 0x0 DUP4 PUSH20 0xFFFFFFFFFFFFFFFFFFFFFFFFFFFFFFFFFFFFFFFF AND PUSH20 0xFFFFFFFFFFFFFFFFFFFFFFFFFFFFFFFFFFFFFFFF AND DUP2 MSTORE PUSH1 0x20 ADD SWAP1 DUP2 MSTORE PUSH1 0x20 ADD PUSH1 0x0 KECCAK256 SLOAD EQ PUSH2 0x1103 JUMPI PUSH1 0x40 MLOAD PUSH32 0x8C379A000000000000000000000000000000000000000000000000000000000 DUP2 MSTORE PUSH1 0x4 ADD PUSH2 0x10FA SWAP1 PUSH2 0x21B7 JUMP JUMPDEST PUSH1 0x40 MLOAD DUP1 SWAP2 SUB SWAP1 REVERT JUMPDEST PUSH1 0x0 TIMESTAMP DUP3 PUSH1 0x1 NUMBER PUSH2 0x1114 SWAP2 SWAP1 PUSH2 0x1CCF JUMP JUMPDEST BLOCKHASH PUSH1 0x40 MLOAD PUSH1 0x20 ADD PUSH2 0x1127 SWAP4 SWAP3 SWAP2 SWAP1 PUSH2 0x2261 JUMP JUMPDEST PUSH1 0x40 MLOAD PUSH1 0x20 DUP2 DUP4 SUB SUB DUP2 MSTORE SWAP1 PUSH1 0x40 MSTORE DUP1 MLOAD SWAP1 PUSH1 0x20 ADD KECCAK256 SWAP1 POP DUP1 PUSH1 0x8 PUSH1 0x0 DUP5 PUSH20 0xFFFFFFFFFFFFFFFFFFFFFFFFFFFFFFFFFFFFFFFF AND PUSH20 0xFFFFFFFFFFFFFFFFFFFFFFFFFFFFFFFFFFFFFFFF AND DUP2 MSTORE PUSH1 0x20 ADD SWAP1 DUP2 MSTORE PUSH1 0x20 ADD PUSH1 0x0 KECCAK256 DUP2 SWAP1 SSTORE POP PUSH1 0x1 PUSH1 0x5 PUSH1 0x0 DUP3 DUP3 SLOAD PUSH2 0x1196 SWAP2 SWAP1 PUSH2 0x1D03 JUMP JUMPDEST SWAP3 POP POP DUP2 SWAP1 SSTORE POP POP POP JUMP JUMPDEST PUSH1 0x7 PUSH1 0x0 SWAP1 SLOAD SWAP1 PUSH2 0x100 EXP SWAP1 DIV PUSH1 0xFF AND DUP2 JUMP JUMPDEST PUSH1 0x0 PUSH1 0x40 MLOAD SWAP1 POP SWAP1 JUMP JUMPDEST PUSH1 0x0 DUP1 REVERT JUMPDEST PUSH1 0x0 DUP1 REVERT JUMPDEST PUSH1 0x0 DUP1 REVERT JUMPDEST PUSH1 0x0 DUP2 SWAP1 POP DUP3 PUSH1 0x20 PUSH1 0x2 MUL DUP3 ADD GT ISZERO PUSH2 0x11E9 JUMPI PUSH2 0x11E8 PUSH2 0x11C8 JUMP JUMPDEST JUMPDEST SWAP3 SWAP2 POP POP JUMP JUMPDEST PUSH1 0x0 DUP2 SWAP1 POP DUP3 PUSH1 0x40 PUSH1 0x2 MUL DUP3 ADD GT ISZERO PUSH2 0x120B JUMPI PUSH2 0x120A PUSH2 0x11C8 JUMP JUMPDEST JUMPDEST SWAP3 SWAP2 POP POP JUMP JUMPDEST PUSH1 0x0 DUP1 PUSH1 0x0 DUP1 PUSH2 0x140 DUP6 DUP8 SUB SLT ISZERO PUSH2 0x122C JUMPI PUSH2 0x122B PUSH2 0x11BE JUMP JUMPDEST JUMPDEST PUSH1 0x0 PUSH2 0x123A DUP8 DUP3 DUP9 ADD PUSH2 0x11CD JUMP JUMPDEST SWAP5 POP POP PUSH1 0x40 PUSH2 0x124B DUP8 DUP3 DUP9 ADD PUSH2 0x11EF JUMP JUMPDEST SWAP4 POP POP PUSH1 0xC0 PUSH2 0x125C DUP8 DUP3 DUP9 ADD PUSH2 0x11CD JUMP JUMPDEST SWAP3 POP POP PUSH2 0x100 PUSH2 0x126E DUP8 DUP3 DUP9 ADD PUSH2 0x11CD JUMP JUMPDEST SWAP2 POP POP SWAP3 SWAP6 SWAP2 SWAP5 POP SWAP3 POP JUMP JUMPDEST PUSH1 0x0 DUP2 ISZERO ISZERO SWAP1 POP SWAP2 SWAP1 POP JUMP JUMPDEST PUSH2 0x128F DUP2 PUSH2 0x127A JUMP JUMPDEST DUP3 MSTORE POP POP JUMP JUMPDEST PUSH1 0x0 PUSH1 0x20 DUP3 ADD SWAP1 POP PUSH2 0x12AA PUSH1 0x0 DUP4 ADD DUP5 PUSH2 0x1286 JUMP JUMPDEST SWAP3 SWAP2 POP POP JUMP JUMPDEST PUSH1 0x0 DUP2 MLOAD SWAP1 POP SWAP2 SWAP1 POP JUMP JUMPDEST PUSH1 0x0 DUP3 DUP3 MSTORE PUSH1 0x20 DUP3 ADD SWAP1 POP SWAP3 SWAP2 POP POP JUMP JUMPDEST PUSH1 0x0 DUP2 SWAP1 POP PUSH1 0x20 DUP3 ADD SWAP1 POP SWAP2 SWAP1 POP JUMP JUMPDEST PUSH1 0x0 DUP2 SWAP1 POP SWAP2 SWAP1 POP JUMP JUMPDEST PUSH2 0x12EF DUP2 PUSH2 0x12DC JUMP JUMPDEST DUP3 MSTORE POP POP JUMP JUMPDEST PUSH1 0x0 DUP2 SWAP1 POP SWAP2 SWAP1 POP JUMP JUMPDEST PUSH2 0x1308 DUP2 PUSH2 0x12F5 JUMP JUMPDEST DUP3 MSTORE POP POP JUMP JUMPDEST PUSH1 0x40 DUP3 ADD PUSH1 0x0 DUP3 ADD MLOAD PUSH2 0x1324 PUSH1 0x0 DUP6 ADD DUP3 PUSH2 0x12E6 JUMP JUMPDEST POP PUSH1 0x20 DUP3 ADD MLOAD PUSH2 0x1337 PUSH1 0x20 DUP6 ADD DUP3 PUSH2 0x12FF JUMP JUMPDEST POP POP POP POP JUMP JUMPDEST PUSH1 0x0 PUSH2 0x1349 DUP4 DUP4 PUSH2 0x130E JUMP JUMPDEST PUSH1 0x40 DUP4 ADD SWAP1 POP SWAP3 SWAP2 POP POP JUMP JUMPDEST PUSH1 0x0 PUSH1 0x20 DUP3 ADD SWAP1 POP SWAP2 SWAP1 POP JUMP JUMPDEST PUSH1 0x0 PUSH2 0x136D DUP3 PUSH2 0x12B0 JUMP JUMPDEST PUSH2 0x1377 DUP2 DUP6 PUSH2 0x12BB JUMP JUMPDEST SWAP4 POP PUSH2 0x1382 DUP4 PUSH2 0x12CC JUMP JUMPDEST DUP1 PUSH1 0x0 JUMPDEST DUP4 DUP2 LT ISZERO PUSH2 0x13B3 JUMPI DUP2 MLOAD PUSH2 0x139A DUP9 DUP3 PUSH2 0x133D JUMP JUMPDEST SWAP8 POP PUSH2 0x13A5 DUP4 PUSH2 0x1355 JUMP JUMPDEST SWAP3 POP POP PUSH1 0x1 DUP2 ADD SWAP1 POP PUSH2 0x1386 JUMP JUMPDEST POP DUP6 SWAP4 POP POP POP POP SWAP3 SWAP2 POP POP JUMP JUMPDEST PUSH1 0x0 PUSH1 0x20 DUP3 ADD SWAP1 POP DUP2 DUP2 SUB PUSH1 0x0 DUP4 ADD MSTORE PUSH2 0x13DA DUP2 DUP5 PUSH2 0x1362 JUMP JUMPDEST SWAP1 POP SWAP3 SWAP2 POP POP JUMP JUMPDEST PUSH1 0x0 PUSH20 0xFFFFFFFFFFFFFFFFFFFFFFFFFFFFFFFFFFFFFFFF DUP3 AND SWAP1 POP SWAP2 SWAP1 POP JUMP JUMPDEST PUSH1 0x0 PUSH2 0x140D DUP3 PUSH2 0x13E2 JUMP JUMPDEST SWAP1 POP SWAP2 SWAP1 POP JUMP JUMPDEST PUSH2 0x141D DUP2 PUSH2 0x1402 JUMP JUMPDEST DUP2 EQ PUSH2 0x1428 JUMPI PUSH1 0x0 DUP1 REVERT JUMPDEST POP JUMP JUMPDEST PUSH1 0x0 DUP2 CALLDATALOAD SWAP1 POP PUSH2 0x143A DUP2 PUSH2 0x1414 JUMP JUMPDEST SWAP3 SWAP2 POP POP JUMP JUMPDEST PUSH1 0x0 PUSH1 0x20 DUP3 DUP5 SUB SLT ISZERO PUSH2 0x1456 JUMPI PUSH2 0x1455 PUSH2 0x11BE JUMP JUMPDEST JUMPDEST PUSH1 0x0 PUSH2 0x1464 DUP5 DUP3 DUP6 ADD PUSH2 0x142B JUMP JUMPDEST SWAP2 POP POP SWAP3 SWAP2 POP POP JUMP JUMPDEST PUSH2 0x1476 DUP2 PUSH2 0x12DC JUMP JUMPDEST DUP3 MSTORE POP POP JUMP JUMPDEST PUSH1 0x0 PUSH1 0x20 DUP3 ADD SWAP1 POP PUSH2 0x1491 PUSH1 0x0 DUP4 ADD DUP5 PUSH2 0x146D JUMP JUMPDEST SWAP3 SWAP2 POP POP JUMP JUMPDEST PUSH2 0x14A0 DUP2 PUSH2 0x12F5 JUMP JUMPDEST DUP2 EQ PUSH2 0x14AB JUMPI PUSH1 0x0 DUP1 REVERT JUMPDEST POP JUMP JUMPDEST PUSH1 0x0 DUP2 CALLDATALOAD SWAP1 POP PUSH2 0x14BD DUP2 PUSH2 0x1497 JUMP JUMPDEST SWAP3 SWAP2 POP POP JUMP JUMPDEST PUSH1 0x0 PUSH1 0x20 DUP3 DUP5 SUB SLT ISZERO PUSH2 0x14D9 JUMPI PUSH2 0x14D8 PUSH2 0x11BE JUMP JUMPDEST JUMPDEST PUSH1 0x0 PUSH2 0x14E7 DUP5 DUP3 DUP6 ADD PUSH2 0x14AE JUMP JUMPDEST SWAP2 POP POP SWAP3 SWAP2 POP POP JUMP JUMPDEST PUSH2 0x14F9 DUP2 PUSH2 0x12F5 JUMP JUMPDEST DUP3 MSTORE POP POP JUMP JUMPDEST PUSH1 0x0 PUSH1 0x20 DUP3 ADD SWAP1 POP PUSH2 0x1514 PUSH1 0x0 DUP4 ADD DUP5 PUSH2 0x14F0 JUMP JUMPDEST SWAP3 SWAP2 POP POP JUMP JUMPDEST PUSH2 0x1523 DUP2 PUSH2 0x1402 JUMP JUMPDEST DUP3 MSTORE POP POP JUMP JUMPDEST PUSH1 0x0 PUSH1 0x20 DUP3 ADD SWAP1 POP PUSH2 0x153E PUSH1 0x0 DUP4 ADD DUP5 PUSH2 0x151A JUMP JUMPDEST SWAP3 SWAP2 POP POP JUMP JUMPDEST PUSH1 0x0 PUSH1 0x40 DUP3 ADD SWAP1 POP PUSH2 0x1559 PUSH1 0x0 DUP4 ADD DUP6 PUSH2 0x146D JUMP JUMPDEST PUSH2 0x1566 PUSH1 0x20 DUP4 ADD DUP5 PUSH2 0x14F0 JUMP JUMPDEST SWAP4 SWAP3 POP POP POP JUMP JUMPDEST PUSH1 0x0 DUP2 MLOAD SWAP1 POP SWAP2 SWAP1 POP JUMP JUMPDEST PUSH1 0x0 DUP3 DUP3 MSTORE PUSH1 0x20 DUP3 ADD SWAP1 POP SWAP3 SWAP2 POP POP JUMP JUMPDEST PUSH1 0x0 DUP2 SWAP1 POP PUSH1 0x20 DUP3 ADD SWAP1 POP SWAP2 SWAP1 POP JUMP JUMPDEST PUSH1 0x0 PUSH2 0x15A5 DUP4 DUP4 PUSH2 0x12FF JUMP JUMPDEST PUSH1 0x20 DUP4 ADD SWAP1 POP SWAP3 SWAP2 POP POP JUMP JUMPDEST PUSH1 0x0 PUSH1 0x20 DUP3 ADD SWAP1 POP SWAP2 SWAP1 POP JUMP JUMPDEST PUSH1 0x0 PUSH2 0x15C9 DUP3 PUSH2 0x156D JUMP JUMPDEST PUSH2 0x15D3 DUP2 DUP6 PUSH2 0x1578 JUMP JUMPDEST SWAP4 POP PUSH2 0x15DE DUP4 PUSH2 0x1589 JUMP JUMPDEST DUP1 PUSH1 0x0 JUMPDEST DUP4 DUP2 LT ISZERO PUSH2 0x160F JUMPI DUP2 MLOAD PUSH2 0x15F6 DUP9 DUP3 PUSH2 0x1599 JUMP JUMPDEST SWAP8 POP PUSH2 0x1601 DUP4 PUSH2 0x15B1 JUMP JUMPDEST SWAP3 POP POP PUSH1 0x1 DUP2 ADD SWAP1 POP PUSH2 0x15E2 JUMP JUMPDEST POP DUP6 SWAP4 POP POP POP POP SWAP3 SWAP2 POP POP JUMP JUMPDEST PUSH1 0x0 PUSH1 0x20 DUP3 ADD SWAP1 POP DUP2 DUP2 SUB PUSH1 0x0 DUP4 ADD MSTORE PUSH2 0x1636 DUP2 DUP5 PUSH2 0x15BE JUMP JUMPDEST SWAP1 POP SWAP3 SWAP2 POP POP JUMP JUMPDEST PUSH2 0x1647 DUP2 PUSH2 0x12DC JUMP JUMPDEST DUP2 EQ PUSH2 0x1652 JUMPI PUSH1 0x0 DUP1 REVERT JUMPDEST POP JUMP JUMPDEST PUSH1 0x0 DUP2 CALLDATALOAD SWAP1 POP PUSH2 0x1664 DUP2 PUSH2 0x163E JUMP JUMPDEST SWAP3 SWAP2 POP POP JUMP JUMPDEST PUSH1 0x0 PUSH1 0x20 DUP3 DUP5 SUB SLT ISZERO PUSH2 0x1680 JUMPI PUSH2 0x167F PUSH2 0x11BE JUMP JUMPDEST JUMPDEST PUSH1 0x0 PUSH2 0x168E DUP5 DUP3 DUP6 ADD PUSH2 0x1655 JUMP JUMPDEST SWAP2 POP POP SWAP3 SWAP2 POP POP JUMP JUMPDEST PUSH1 0x0 DUP1 REVERT JUMPDEST PUSH1 0x0 PUSH1 0x1F NOT PUSH1 0x1F DUP4 ADD AND SWAP1 POP SWAP2 SWAP1 POP JUMP JUMPDEST PUSH32 0x4E487B7100000000000000000000000000000000000000000000000000000000 PUSH1 0x0 MSTORE PUSH1 0x41 PUSH1 0x4 MSTORE PUSH1 0x24 PUSH1 0x0 REVERT JUMPDEST PUSH2 0x16E5 DUP3 PUSH2 0x169C JUMP JUMPDEST DUP2 ADD DUP2 DUP2 LT PUSH8 0xFFFFFFFFFFFFFFFF DUP3 GT OR ISZERO PUSH2 0x1704 JUMPI PUSH2 0x1703 PUSH2 0x16AD JUMP JUMPDEST JUMPDEST DUP1 PUSH1 0x40 MSTORE POP POP POP JUMP JUMPDEST PUSH1 0x0 PUSH2 0x1717 PUSH2 0x11B4 JUMP JUMPDEST SWAP1 POP PUSH2 0x1723 DUP3 DUP3 PUSH2 0x16DC JUMP JUMPDEST SWAP2 SWAP1 POP JUMP JUMPDEST PUSH1 0x0 PUSH8 0xFFFFFFFFFFFFFFFF DUP3 GT ISZERO PUSH2 0x1743 JUMPI PUSH2 0x1742 PUSH2 0x16AD JUMP JUMPDEST JUMPDEST PUSH1 0x20 DUP3 MUL SWAP1 POP PUSH1 0x20 DUP2 ADD SWAP1 POP SWAP2 SWAP1 POP JUMP JUMPDEST PUSH1 0x0 PUSH2 0x1767 PUSH2 0x1762 DUP5 PUSH2 0x1728 JUMP JUMPDEST PUSH2 0x170D JUMP JUMPDEST SWAP1 POP DUP1 DUP4 DUP3 MSTORE PUSH1 0x20 DUP3 ADD SWAP1 POP PUSH1 0x20 DUP5 MUL DUP4 ADD DUP6 DUP2 GT ISZERO PUSH2 0x178A JUMPI PUSH2 0x1789 PUSH2 0x11C8 JUMP JUMPDEST JUMPDEST DUP4 JUMPDEST DUP2 DUP2 LT ISZERO PUSH2 0x17B3 JUMPI DUP1 PUSH2 0x179F DUP9 DUP3 PUSH2 0x14AE JUMP JUMPDEST DUP5 MSTORE PUSH1 0x20 DUP5 ADD SWAP4 POP POP PUSH1 0x20 DUP2 ADD SWAP1 POP PUSH2 0x178C JUMP JUMPDEST POP POP POP SWAP4 SWAP3 POP POP POP JUMP JUMPDEST PUSH1 0x0 DUP3 PUSH1 0x1F DUP4 ADD SLT PUSH2 0x17D2 JUMPI PUSH2 0x17D1 PUSH2 0x1697 JUMP JUMPDEST JUMPDEST DUP2 CALLDATALOAD PUSH2 0x17E2 DUP5 DUP3 PUSH1 0x20 DUP7 ADD PUSH2 0x1754 JUMP JUMPDEST SWAP2 POP POP SWAP3 SWAP2 POP POP JUMP JUMPDEST PUSH1 0x0 PUSH1 0x20 DUP3 DUP5 SUB SLT ISZERO PUSH2 0x1801 JUMPI PUSH2 0x1800 PUSH2 0x11BE JUMP JUMPDEST JUMPDEST PUSH1 0x0 DUP3 ADD CALLDATALOAD PUSH8 0xFFFFFFFFFFFFFFFF DUP2 GT ISZERO PUSH2 0x181F JUMPI PUSH2 0x181E PUSH2 0x11C3 JUMP JUMPDEST JUMPDEST PUSH2 0x182B DUP5 DUP3 DUP6 ADD PUSH2 0x17BD JUMP JUMPDEST SWAP2 POP POP SWAP3 SWAP2 POP POP JUMP JUMPDEST PUSH1 0x0 DUP3 DUP3 MSTORE PUSH1 0x20 DUP3 ADD SWAP1 POP SWAP3 SWAP2 POP POP JUMP JUMPDEST PUSH32 0x54686520766F74696E672070726F63657373206861736E277420737461727465 PUSH1 0x0 DUP3 ADD MSTORE PUSH32 0x6420796574000000000000000000000000000000000000000000000000000000 PUSH1 0x20 DUP3 ADD MSTORE POP JUMP JUMPDEST PUSH1 0x0 PUSH2 0x18A1 PUSH1 0x25 DUP4 PUSH2 0x1834 JUMP JUMPDEST SWAP2 POP PUSH2 0x18AC DUP3 PUSH2 0x1845 JUMP JUMPDEST PUSH1 0x40 DUP3 ADD SWAP1 POP SWAP2 SWAP1 POP JUMP JUMPDEST PUSH1 0x0 PUSH1 0x20 DUP3 ADD SWAP1 POP DUP2 DUP2 SUB PUSH1 0x0 DUP4 ADD MSTORE PUSH2 0x18D0 DUP2 PUSH2 0x1894 JUMP JUMPDEST SWAP1 POP SWAP2 SWAP1 POP JUMP JUMPDEST DUP3 DUP2 DUP4 CALLDATACOPY POP POP POP JUMP JUMPDEST PUSH2 0x18EC PUSH1 0x40 DUP4 DUP4 PUSH2 0x18D7 JUMP JUMPDEST POP POP JUMP JUMPDEST PUSH1 0x0 PUSH1 0x2 SWAP1 POP SWAP2 SWAP1 POP JUMP JUMPDEST PUSH1 0x0 DUP2 SWAP1 POP SWAP3 SWAP2 POP POP JUMP JUMPDEST PUSH1 0x0 DUP2 SWAP1 POP SWAP2 SWAP1 POP JUMP JUMPDEST PUSH2 0x191C PUSH1 0x40 DUP4 DUP4 PUSH2 0x18D7 JUMP JUMPDEST POP POP JUMP JUMPDEST PUSH1 0x0 PUSH2 0x192C DUP4 DUP4 PUSH2 0x1910 JUMP JUMPDEST PUSH1 0x40 DUP4 ADD SWAP1 POP SWAP3 SWAP2 POP POP JUMP JUMPDEST PUSH1 0x0 DUP3 SWAP1 POP SWAP3 SWAP2 POP POP JUMP JUMPDEST PUSH1 0x0 PUSH1 0x40 DUP3 ADD SWAP1 POP SWAP2 SWAP1 POP JUMP JUMPDEST PUSH2 0x1959 DUP2 PUSH2 0x18F0 JUMP JUMPDEST PUSH2 0x1963 DUP2 DUP5 PUSH2 0x18FB JUMP JUMPDEST SWAP3 POP PUSH2 0x196E DUP3 PUSH2 0x1906 JUMP JUMPDEST DUP1 PUSH1 0x0 JUMPDEST DUP4 DUP2 LT ISZERO PUSH2 0x19A7 JUMPI PUSH2 0x1984 DUP3 DUP5 PUSH2 0x1938 JUMP JUMPDEST PUSH2 0x198E DUP8 DUP3 PUSH2 0x1920 JUMP JUMPDEST SWAP7 POP PUSH2 0x1999 DUP4 PUSH2 0x1943 JUMP JUMPDEST SWAP3 POP POP PUSH1 0x1 DUP2 ADD SWAP1 POP PUSH2 0x1972 JUMP JUMPDEST POP POP POP POP POP POP JUMP JUMPDEST PUSH1 0x0 PUSH2 0x140 DUP3 ADD SWAP1 POP PUSH2 0x19C5 PUSH1 0x0 DUP4 ADD DUP8 PUSH2 0x18E0 JUMP JUMPDEST PUSH2 0x19D2 PUSH1 0x40 DUP4 ADD DUP7 PUSH2 0x1950 JUMP JUMPDEST PUSH2 0x19DF PUSH1 0xC0 DUP4 ADD DUP6 PUSH2 0x18E0 JUMP JUMPDEST PUSH2 0x19ED PUSH2 0x100 DUP4 ADD DUP5 PUSH2 0x18E0 JUMP JUMPDEST SWAP6 SWAP5 POP POP POP POP POP JUMP JUMPDEST PUSH2 0x19FF DUP2 PUSH2 0x127A JUMP JUMPDEST DUP2 EQ PUSH2 0x1A0A JUMPI PUSH1 0x0 DUP1 REVERT JUMPDEST POP JUMP JUMPDEST PUSH1 0x0 DUP2 MLOAD SWAP1 POP PUSH2 0x1A1C DUP2 PUSH2 0x19F6 JUMP JUMPDEST SWAP3 SWAP2 POP POP JUMP JUMPDEST PUSH1 0x0 PUSH1 0x20 DUP3 DUP5 SUB SLT ISZERO PUSH2 0x1A38 JUMPI PUSH2 0x1A37 PUSH2 0x11BE JUMP JUMPDEST JUMPDEST PUSH1 0x0 PUSH2 0x1A46 DUP5 DUP3 DUP6 ADD PUSH2 0x1A0D JUMP JUMPDEST SWAP2 POP POP SWAP3 SWAP2 POP POP JUMP JUMPDEST PUSH32 0x4163636573732064656E6965643A20496E76616C69642050726F6F662E000000 PUSH1 0x0 DUP3 ADD MSTORE POP JUMP JUMPDEST PUSH1 0x0 PUSH2 0x1A85 PUSH1 0x1D DUP4 PUSH2 0x1834 JUMP JUMPDEST SWAP2 POP PUSH2 0x1A90 DUP3 PUSH2 0x1A4F JUMP JUMPDEST PUSH1 0x20 DUP3 ADD SWAP1 POP SWAP2 SWAP1 POP JUMP JUMPDEST PUSH1 0x0 PUSH1 0x20 DUP3 ADD SWAP1 POP DUP2 DUP2 SUB PUSH1 0x0 DUP4 ADD MSTORE PUSH2 0x1AB4 DUP2 PUSH2 0x1A78 JUMP JUMPDEST SWAP1 POP SWAP2 SWAP1 POP JUMP JUMPDEST PUSH32 0x4E487B7100000000000000000000000000000000000000000000000000000000 PUSH1 0x0 MSTORE PUSH1 0x32 PUSH1 0x4 MSTORE PUSH1 0x24 PUSH1 0x0 REVERT JUMPDEST PUSH32 0x54686520766F74657220646F6573206E6F742068617665207468652072696768 PUSH1 0x0 DUP3 ADD MSTORE PUSH32 0x7420746F20766F74652E00000000000000000000000000000000000000000000 PUSH1 0x20 DUP3 ADD MSTORE POP JUMP JUMPDEST PUSH1 0x0 PUSH2 0x1B46 PUSH1 0x2A DUP4 PUSH2 0x1834 JUMP JUMPDEST SWAP2 POP PUSH2 0x1B51 DUP3 PUSH2 0x1AEA JUMP JUMPDEST PUSH1 0x40 DUP3 ADD SWAP1 POP SWAP2 SWAP1 POP JUMP JUMPDEST PUSH1 0x0 PUSH1 0x20 DUP3 ADD SWAP1 POP DUP2 DUP2 SUB PUSH1 0x0 DUP4 ADD MSTORE PUSH2 0x1B75 DUP2 PUSH2 0x1B39 JUMP JUMPDEST SWAP1 POP SWAP2 SWAP1 POP JUMP JUMPDEST PUSH32 0x4F6E6C79206368616972706572736F6E206861732061636365737320746F2074 PUSH1 0x0 DUP3 ADD MSTORE PUSH32 0x6869732066756E6374696F6E2100000000000000000000000000000000000000 PUSH1 0x20 DUP3 ADD MSTORE POP JUMP JUMPDEST PUSH1 0x0 PUSH2 0x1BD8 PUSH1 0x2D DUP4 PUSH2 0x1834 JUMP JUMPDEST SWAP2 POP PUSH2 0x1BE3 DUP3 PUSH2 0x1B7C JUMP JUMPDEST PUSH1 0x40 DUP3 ADD SWAP1 POP SWAP2 SWAP1 POP JUMP JUMPDEST PUSH1 0x0 PUSH1 0x20 DUP3 ADD SWAP1 POP DUP2 DUP2 SUB PUSH1 0x0 DUP4 ADD MSTORE PUSH2 0x1C07 DUP2 PUSH2 0x1BCB JUMP JUMPDEST SWAP1 POP SWAP2 SWAP1 POP JUMP JUMPDEST PUSH32 0x54686520656C656374696F6E732068617320616C7265616479206265656E2073 PUSH1 0x0 DUP3 ADD MSTORE PUSH32 0x7461727465640000000000000000000000000000000000000000000000000000 PUSH1 0x20 DUP3 ADD MSTORE POP JUMP JUMPDEST PUSH1 0x0 PUSH2 0x1C6A PUSH1 0x26 DUP4 PUSH2 0x1834 JUMP JUMPDEST SWAP2 POP PUSH2 0x1C75 DUP3 PUSH2 0x1C0E JUMP JUMPDEST PUSH1 0x40 DUP3 ADD SWAP1 POP SWAP2 SWAP1 POP JUMP JUMPDEST PUSH1 0x0 PUSH1 0x20 DUP3 ADD SWAP1 POP DUP2 DUP2 SUB PUSH1 0x0 DUP4 ADD MSTORE PUSH2 0x1C99 DUP2 PUSH2 0x1C5D JUMP JUMPDEST SWAP1 POP SWAP2 SWAP1 POP JUMP JUMPDEST PUSH32 0x4E487B7100000000000000000000000000000000000000000000000000000000 PUSH1 0x0 MSTORE PUSH1 0x11 PUSH1 0x4 MSTORE PUSH1 0x24 PUSH1 0x0 REVERT JUMPDEST PUSH1 0x0 PUSH2 0x1CDA DUP3 PUSH2 0x12F5 JUMP JUMPDEST SWAP2 POP PUSH2 0x1CE5 DUP4 PUSH2 0x12F5 JUMP JUMPDEST SWAP3 POP DUP3 DUP3 SUB SWAP1 POP DUP2 DUP2 GT ISZERO PUSH2 0x1CFD JUMPI PUSH2 0x1CFC PUSH2 0x1CA0 JUMP JUMPDEST JUMPDEST SWAP3 SWAP2 POP POP JUMP JUMPDEST PUSH1 0x0 PUSH2 0x1D0E DUP3 PUSH2 0x12F5 JUMP JUMPDEST SWAP2 POP PUSH2 0x1D19 DUP4 PUSH2 0x12F5 JUMP JUMPDEST SWAP3 POP DUP3 DUP3 ADD SWAP1 POP DUP1 DUP3 GT ISZERO PUSH2 0x1D31 JUMPI PUSH2 0x1D30 PUSH2 0x1CA0 JUMP JUMPDEST JUMPDEST SWAP3 SWAP2 POP POP JUMP JUMPDEST PUSH32 0x54686520766F74696E672070726F6365737320686173206265656E20636F6D70 PUSH1 0x0 DUP3 ADD MSTORE PUSH32 0x6C657465642E0000000000000000000000000000000000000000000000000000 PUSH1 0x20 DUP3 ADD MSTORE POP JUMP JUMPDEST PUSH1 0x0 PUSH2 0x1D93 PUSH1 0x26 DUP4 PUSH2 0x1834 JUMP JUMPDEST SWAP2 POP PUSH2 0x1D9E DUP3 PUSH2 0x1D37 JUMP JUMPDEST PUSH1 0x40 DUP3 ADD SWAP1 POP SWAP2 SWAP1 POP JUMP JUMPDEST PUSH1 0x0 PUSH1 0x20 DUP3 ADD SWAP1 POP DUP2 DUP2 SUB PUSH1 0x0 DUP4 ADD MSTORE PUSH2 0x1DC2 DUP2 PUSH2 0x1D86 JUMP JUMPDEST SWAP1 POP SWAP2 SWAP1 POP JUMP JUMPDEST PUSH32 0x596F75206861766520616C726561647920766F74656421000000000000000000 PUSH1 0x0 DUP3 ADD MSTORE POP JUMP JUMPDEST PUSH1 0x0 PUSH2 0x1DFF PUSH1 0x17 DUP4 PUSH2 0x1834 JUMP JUMPDEST SWAP2 POP PUSH2 0x1E0A DUP3 PUSH2 0x1DC9 JUMP JUMPDEST PUSH1 0x20 DUP3 ADD SWAP1 POP SWAP2 SWAP1 POP JUMP JUMPDEST PUSH1 0x0 PUSH1 0x20 DUP3 ADD SWAP1 POP DUP2 DUP2 SUB PUSH1 0x0 DUP4 ADD MSTORE PUSH2 0x1E2E DUP2 PUSH2 0x1DF2 JUMP JUMPDEST SWAP1 POP SWAP2 SWAP1 POP JUMP JUMPDEST PUSH32 0x5468652063616E6469646174657320726567697374726174696F6E2070726F63 PUSH1 0x0 DUP3 ADD MSTORE PUSH32 0x65737320686173206265656E20636F6D706C657465642E000000000000000000 PUSH1 0x20 DUP3 ADD MSTORE POP JUMP JUMPDEST PUSH1 0x0 PUSH2 0x1E91 PUSH1 0x37 DUP4 PUSH2 0x1834 JUMP JUMPDEST SWAP2 POP PUSH2 0x1E9C DUP3 PUSH2 0x1E35 JUMP JUMPDEST PUSH1 0x40 DUP3 ADD SWAP1 POP SWAP2 SWAP1 POP JUMP JUMPDEST PUSH1 0x0 PUSH1 0x20 DUP3 ADD SWAP1 POP DUP2 DUP2 SUB PUSH1 0x0 DUP4 ADD MSTORE PUSH2 0x1EC0 DUP2 PUSH2 0x1E84 JUMP JUMPDEST SWAP1 POP SWAP2 SWAP1 POP JUMP JUMPDEST PUSH32 0x54686520766F74696E672070726F63657373206861736E277420737461727465 PUSH1 0x0 DUP3 ADD MSTORE PUSH32 0x64207965742E0000000000000000000000000000000000000000000000000000 PUSH1 0x20 DUP3 ADD MSTORE POP JUMP JUMPDEST PUSH1 0x0 PUSH2 0x1F23 PUSH1 0x26 DUP4 PUSH2 0x1834 JUMP JUMPDEST SWAP2 POP PUSH2 0x1F2E DUP3 PUSH2 0x1EC7 JUMP JUMPDEST PUSH1 0x40 DUP3 ADD SWAP1 POP SWAP2 SWAP1 POP JUMP JUMPDEST PUSH1 0x0 PUSH1 0x20 DUP3 ADD SWAP1 POP DUP2 DUP2 SUB PUSH1 0x0 DUP4 ADD MSTORE PUSH2 0x1F52 DUP2 PUSH2 0x1F16 JUMP JUMPDEST SWAP1 POP SWAP2 SWAP1 POP JUMP JUMPDEST PUSH32 0x54686520766F74696E672070726F63657373206861736E277420636F6D706C65 PUSH1 0x0 DUP3 ADD MSTORE PUSH32 0x746564207965742E000000000000000000000000000000000000000000000000 PUSH1 0x20 DUP3 ADD MSTORE POP JUMP JUMPDEST PUSH1 0x0 PUSH2 0x1FB5 PUSH1 0x28 DUP4 PUSH2 0x1834 JUMP JUMPDEST SWAP2 POP PUSH2 0x1FC0 DUP3 PUSH2 0x1F59 JUMP JUMPDEST PUSH1 0x40 DUP3 ADD SWAP1 POP SWAP2 SWAP1 POP JUMP JUMPDEST PUSH1 0x0 PUSH1 0x20 DUP3 ADD SWAP1 POP DUP2 DUP2 SUB PUSH1 0x0 DUP4 ADD MSTORE PUSH2 0x1FE4 DUP2 PUSH2 0x1FA8 JUMP JUMPDEST SWAP1 POP SWAP2 SWAP1 POP JUMP JUMPDEST PUSH32 0x5468652066696E616C2062616C6C6F7420726573756C7473206861766520616C PUSH1 0x0 DUP3 ADD MSTORE PUSH32 0x7265616479206265656E20697373756564210000000000000000000000000000 PUSH1 0x20 DUP3 ADD MSTORE POP JUMP JUMPDEST PUSH1 0x0 PUSH2 0x2047 PUSH1 0x32 DUP4 PUSH2 0x1834 JUMP JUMPDEST SWAP2 POP PUSH2 0x2052 DUP3 PUSH2 0x1FEB JUMP JUMPDEST PUSH1 0x40 DUP3 ADD SWAP1 POP SWAP2 SWAP1 POP JUMP JUMPDEST PUSH1 0x0 PUSH1 0x20 DUP3 ADD SWAP1 POP DUP2 DUP2 SUB PUSH1 0x0 DUP4 ADD MSTORE PUSH2 0x2076 DUP2 PUSH2 0x203A JUMP JUMPDEST SWAP1 POP SWAP2 SWAP1 POP JUMP JUMPDEST PUSH1 0x0 PUSH1 0xFF DUP3 AND SWAP1 POP SWAP2 SWAP1 POP JUMP JUMPDEST PUSH1 0x0 PUSH2 0x2095 DUP3 PUSH2 0x207D JUMP JUMPDEST SWAP2 POP PUSH1 0xFF DUP3 SUB PUSH2 0x20A8 JUMPI PUSH2 0x20A7 PUSH2 0x1CA0 JUMP JUMPDEST JUMPDEST PUSH1 0x1 DUP3 ADD SWAP1 POP SWAP2 SWAP1 POP JUMP JUMPDEST PUSH32 0x54686520766F7465727320726567697374726174696F6E2070726F6365737320 PUSH1 0x0 DUP3 ADD MSTORE PUSH32 0x686173206265656E20636F6D706C657465642E00000000000000000000000000 PUSH1 0x20 DUP3 ADD MSTORE POP JUMP JUMPDEST PUSH1 0x0 PUSH2 0x210F PUSH1 0x33 DUP4 PUSH2 0x1834 JUMP JUMPDEST SWAP2 POP PUSH2 0x211A DUP3 PUSH2 0x20B3 JUMP JUMPDEST PUSH1 0x40 DUP3 ADD SWAP1 POP SWAP2 SWAP1 POP JUMP JUMPDEST PUSH1 0x0 PUSH1 0x20 DUP3 ADD SWAP1 POP DUP2 DUP2 SUB PUSH1 0x0 DUP4 ADD MSTORE PUSH2 0x213E DUP2 PUSH2 0x2102 JUMP JUMPDEST SWAP1 POP SWAP2 SWAP1 POP JUMP JUMPDEST PUSH32 0x54686520766F7465722068617320616C72656164792072656769737465726564 PUSH1 0x0 DUP3 ADD MSTORE PUSH32 0x2E00000000000000000000000000000000000000000000000000000000000000 PUSH1 0x20 DUP3 ADD MSTORE POP JUMP JUMPDEST PUSH1 0x0 PUSH2 0x21A1 PUSH1 0x21 DUP4 PUSH2 0x1834 JUMP JUMPDEST SWAP2 POP PUSH2 0x21AC DUP3 PUSH2 0x2145 JUMP JUMPDEST PUSH1 0x40 DUP3 ADD SWAP1 POP SWAP2 SWAP1 POP JUMP JUMPDEST PUSH1 0x0 PUSH1 0x20 DUP3 ADD SWAP1 POP DUP2 DUP2 SUB PUSH1 0x0 DUP4 ADD MSTORE PUSH2 0x21D0 DUP2 PUSH2 0x2194 JUMP JUMPDEST SWAP1 POP SWAP2 SWAP1 POP JUMP JUMPDEST PUSH1 0x0 DUP2 SWAP1 POP SWAP2 SWAP1 POP JUMP JUMPDEST PUSH2 0x21F2 PUSH2 0x21ED DUP3 PUSH2 0x12F5 JUMP JUMPDEST PUSH2 0x21D7 JUMP JUMPDEST DUP3 MSTORE POP POP JUMP JUMPDEST PUSH1 0x0 DUP2 PUSH1 0x60 SHL SWAP1 POP SWAP2 SWAP1 POP JUMP JUMPDEST PUSH1 0x0 PUSH2 0x2210 DUP3 PUSH2 0x21F8 JUMP JUMPDEST SWAP1 POP SWAP2 SWAP1 POP JUMP JUMPDEST PUSH1 0x0 PUSH2 0x2222 DUP3 PUSH2 0x2205 JUMP JUMPDEST SWAP1 POP SWAP2 SWAP1 POP JUMP JUMPDEST PUSH2 0x223A PUSH2 0x2235 DUP3 PUSH2 0x1402 JUMP JUMPDEST PUSH2 0x2217 JUMP JUMPDEST DUP3 MSTORE POP POP JUMP JUMPDEST PUSH1 0x0 DUP2 SWAP1 POP SWAP2 SWAP1 POP JUMP JUMPDEST PUSH2 0x225B PUSH2 0x2256 DUP3 PUSH2 0x12DC JUMP JUMPDEST PUSH2 0x2240 JUMP JUMPDEST DUP3 MSTORE POP POP JUMP JUMPDEST PUSH1 0x0 PUSH2 0x226D DUP3 DUP7 PUSH2 0x21E1 JUMP JUMPDEST PUSH1 0x20 DUP3 ADD SWAP2 POP PUSH2 0x227D DUP3 DUP6 PUSH2 0x2229 JUMP JUMPDEST PUSH1 0x14 DUP3 ADD SWAP2 POP PUSH2 0x228D DUP3 DUP5 PUSH2 0x224A JUMP JUMPDEST PUSH1 0x20 DUP3 ADD SWAP2 POP DUP2 SWAP1 POP SWAP5 SWAP4 POP POP POP POP JUMP INVALID LOG2 PUSH5 0x6970667358 0x22 SLT KECCAK256 0x2E GAS SLOAD 0xC JUMPDEST MLOAD 0xBD MULMOD 0xC DUP7 PUSH2 0x720F 0xD4 0xD3 CREATE2 0xBE 0xDD PUSH23 0x37ADD010BC74B4CB1FAC37A25664736F6C634300081C00 CALLER "},"methodIdentifiers":{"allVoteCommitments(uint256)":"24f3da33","candidates(uint256)":"3477ee2e","candidatesCount()":"2d35a8a2","chairperson()":"2e4176cf","endTime()":"3197cbb6","getAllVotes()":"851b6ef2","getCandidates()":"06a49fce","groth16VerifierAddress()":"a0e5f890","hasVoted(uint256)":"ecca031f","issueBallotResults(uint256[])":"8eb6f9eb","issuedResults()":"f1f710d5","proveYourVote(uint256[2],uint256[2][2],uint256[2],uint256[2])":"017cd827","registerCandidates(bytes32)":"8b51ebff","registerVoters(address)":"ed8a1608","stageLimit()":"eac69686","startBallot(uint256)":"18034fe4","startupTime()":"345eacf2","submitVote(uint256[2],uint256[2][2],uint256[2],uint256[2])":"1927f068","verifyVoter(address)":"09bd0950","voteCommitments(uint256)":"e8d0827b","votersCount()":"98c07938"}}}}}