{
  "_format": "hh-sol-artifact-1",
  "contractName": "Ballot",
  "sourceName": "contracts/Ballot.sol",
  "abi": [
    {
      "inputs": [
        {
          "internalType": "uint256",
          "name": "stg_lmt",
          "type": "uint256"
        },
        {
          "internalType": "address",
          "name": "_groth16VerifierAddress",
          "type": "address"
        }
      ],
      "stateMutability": "nonpayable",
      "type": "constructor"
    },
    {
      "anonymous": false,
      "inputs": [
        {
          "indexed": false,
          "internalType": "string",
          "name": "error",
          "type": "string"
        }
      ],
      "name": "ErrorOccurred",
      "type": "event"
    },
    {
      "anonymous": false,
      "inputs": [
        {
          "indexed": false,
          "internalType": "bool",
          "name": "result",
          "type": "bool"
        }
      ],
      "name": "ProofResult",
      "type": "event"
    },
    {
      "anonymous": false,
      "inputs": [
        {
          "indexed": false,
          "internalType": "uint256",
          "name": "voteCommitment",
          "type": "uint256"
        },
        {
          "indexed": true,
          "internalType": "uint256",
          "name": "nullifierHash",
          "type": "uint256"
        }
      ],
      "name": "VoteSubmitted",
      "type": "event"
    },
    {
      "inputs": [
        {
          "internalType": "uint256",
          "name": "",
          "type": "uint256"
        }
      ],
      "name": "allVoteCommitments",
      "outputs": [
        {
          "internalType": "uint256",
          "name": "",
          "type": "uint256"
        }
      ],
      "stateMutability": "view",
      "type": "function"
    },
    {
      "inputs": [],
      "name": "candidatesCount",
      "outputs": [
        {
          "internalType": "uint256",
          "name": "",
          "type": "uint256"
        }
      ],
      "stateMutability": "view",
      "type": "function"
    },
    {
      "inputs": [],
      "name": "chairperson",
      "outputs": [
        {
          "internalType": "address",
          "name": "",
          "type": "address"
        }
      ],
      "stateMutability": "view",
      "type": "function"
    },
    {
      "inputs": [],
      "name": "endTime",
      "outputs": [
        {
          "internalType": "uint256",
          "name": "",
          "type": "uint256"
        }
      ],
      "stateMutability": "view",
      "type": "function"
    },
    {
      "inputs": [],
      "name": "getAllVotes",
      "outputs": [
        {
          "internalType": "uint256[]",
          "name": "",
          "type": "uint256[]"
        }
      ],
      "stateMutability": "view",
      "type": "function"
    },
    {
      "inputs": [],
      "name": "groth16VerifierAddress",
      "outputs": [
        {
          "internalType": "address",
          "name": "",
          "type": "address"
        }
      ],
      "stateMutability": "view",
      "type": "function"
    },
    {
      "inputs": [
        {
          "internalType": "uint256",
          "name": "",
          "type": "uint256"
        }
      ],
      "name": "hasVoted",
      "outputs": [
        {
          "internalType": "bool",
          "name": "",
          "type": "bool"
        }
      ],
      "stateMutability": "view",
      "type": "function"
    },
    {
      "inputs": [
        {
          "internalType": "uint256[]",
          "name": "votes",
          "type": "uint256[]"
        }
      ],
      "name": "issueElectionResults",
      "outputs": [],
      "stateMutability": "nonpayable",
      "type": "function"
    },
    {
      "inputs": [],
      "name": "issuedResults",
      "outputs": [
        {
          "internalType": "bool",
          "name": "",
          "type": "bool"
        }
      ],
      "stateMutability": "view",
      "type": "function"
    },
    {
      "inputs": [
        {
          "internalType": "uint256",
          "name": "",
          "type": "uint256"
        }
      ],
      "name": "proposals",
      "outputs": [
        {
          "internalType": "bytes32",
          "name": "name",
          "type": "bytes32"
        },
        {
          "internalType": "uint256",
          "name": "voteCount",
          "type": "uint256"
        }
      ],
      "stateMutability": "view",
      "type": "function"
    },
    {
      "inputs": [
        {
          "internalType": "uint256[2]",
          "name": "_pA",
          "type": "uint256[2]"
        },
        {
          "internalType": "uint256[2][2]",
          "name": "_pB",
          "type": "uint256[2][2]"
        },
        {
          "internalType": "uint256[2]",
          "name": "_pC",
          "type": "uint256[2]"
        },
        {
          "internalType": "uint256[2]",
          "name": "_pubSignals",
          "type": "uint256[2]"
        }
      ],
      "name": "proveYourVote",
      "outputs": [
        {
          "internalType": "bool",
          "name": "",
          "type": "bool"
        }
      ],
      "stateMutability": "view",
      "type": "function"
    },
    {
      "inputs": [
        {
          "internalType": "bytes32",
          "name": "_name",
          "type": "bytes32"
        }
      ],
      "name": "registerCandidates",
      "outputs": [],
      "stateMutability": "nonpayable",
      "type": "function"
    },
    {
      "inputs": [
        {
          "internalType": "address",
          "name": "voter",
          "type": "address"
        }
      ],
      "name": "registerVoters",
      "outputs": [],
      "stateMutability": "nonpayable",
      "type": "function"
    },
    {
      "inputs": [],
      "name": "stageLimit",
      "outputs": [
        {
          "internalType": "uint256",
          "name": "",
          "type": "uint256"
        }
      ],
      "stateMutability": "view",
      "type": "function"
    },
    {
      "inputs": [
        {
          "internalType": "uint256",
          "name": "curTime",
          "type": "uint256"
        }
      ],
      "name": "startElections",
      "outputs": [],
      "stateMutability": "nonpayable",
      "type": "function"
    },
    {
      "inputs": [],
      "name": "startupTime",
      "outputs": [
        {
          "internalType": "uint256",
          "name": "",
          "type": "uint256"
        }
      ],
      "stateMutability": "view",
      "type": "function"
    },
    {
      "inputs": [
        {
          "internalType": "uint256[2]",
          "name": "_pA",
          "type": "uint256[2]"
        },
        {
          "internalType": "uint256[2][2]",
          "name": "_pB",
          "type": "uint256[2][2]"
        },
        {
          "internalType": "uint256[2]",
          "name": "_pC",
          "type": "uint256[2]"
        },
        {
          "internalType": "uint256[2]",
          "name": "_pubSignals",
          "type": "uint256[2]"
        }
      ],
      "name": "submitVote",
      "outputs": [],
      "stateMutability": "nonpayable",
      "type": "function"
    },
    {
      "inputs": [
        {
          "internalType": "address",
          "name": "voter",
          "type": "address"
        }
      ],
      "name": "verifyVoter",
      "outputs": [
        {
          "internalType": "bytes32",
          "name": "",
          "type": "bytes32"
        }
      ],
      "stateMutability": "view",
      "type": "function"
    },
    {
      "inputs": [
        {
          "internalType": "uint256",
          "name": "",
          "type": "uint256"
        }
      ],
      "name": "voteCommitments",
      "outputs": [
        {
          "internalType": "bool",
          "name": "",
          "type": "bool"
        }
      ],
      "stateMutability": "view",
      "type": "function"
    },
    {
      "inputs": [],
      "name": "votersCount",
      "outputs": [
        {
          "internalType": "uint256",
          "name": "",
          "type": "uint256"
        }
      ],
      "stateMutability": "view",
      "type": "function"
    }
  ],
  "bytecode": "0x608060405234801561001057600080fd5b506040516121dd3803806121dd8339818101604052810190610032919061018d565b336000806101000a81548173ffffffffffffffffffffffffffffffffffffffff021916908373ffffffffffffffffffffffffffffffffffffffff16021790555080600760016101000a81548173ffffffffffffffffffffffffffffffffffffffff021916908373ffffffffffffffffffffffffffffffffffffffff160217905550600060028190555081600481905550600060068190555060006005819055506000600760006101000a81548160ff02191690831515021790555050506101cd565b600080fd5b6000819050919050565b61010c816100f9565b811461011757600080fd5b50565b60008151905061012981610103565b92915050565b600073ffffffffffffffffffffffffffffffffffffffff82169050919050565b600061015a8261012f565b9050919050565b61016a8161014f565b811461017557600080fd5b50565b60008151905061018781610161565b92915050565b600080604083850312156101a4576101a36100f4565b5b60006101b28582860161011a565b92505060206101c385828601610178565b9150509250929050565b612001806101dc6000396000f3fe608060405234801561001057600080fd5b506004361061012c5760003560e01c80638b51ebff116100ad578063e8d0827b11610071578063e8d0827b14610334578063eac6968614610364578063ecca031f14610382578063ed8a1608146103b2578063f1f710d5146103ce5761012c565b80638b51ebff146102a457806398c07938146102c0578063a0e5f890146102de578063cadbc68c146102fc578063cd0c081f146103185761012c565b80632d35a8a2116100f45780632d35a8a21461020e5780632e4176cf1461022c5780633197cbb61461024a578063345eacf214610268578063851b6ef2146102865761012c565b8063013cf08b14610131578063017cd8271461016257806309bd0950146101925780631927f068146101c257806324f3da33146101de575b600080fd5b61014b6004803603810190610146919061115e565b6103ec565b6040516101599291906111b3565b60405180910390f35b61017c60048036038101906101779190611225565b610420565b60405161018991906112a9565b60405180910390f35b6101ac60048036038101906101a79190611322565b6105aa565b6040516101b9919061134f565b60405180910390f35b6101dc60048036038101906101d79190611225565b610677565b005b6101f860048036038101906101f3919061115e565b6109dc565b604051610205919061136a565b60405180910390f35b610216610a00565b604051610223919061136a565b60405180910390f35b610234610a06565b6040516102419190611394565b60405180910390f35b610252610a2a565b60405161025f919061136a565b60405180910390f35b610270610a30565b60405161027d919061136a565b60405180910390f35b61028e610a36565b60405161029b919061146d565b60405180910390f35b6102be60048036038101906102b991906114bb565b610a8e565b005b6102c8610bd5565b6040516102d5919061136a565b60405180910390f35b6102e6610bdb565b6040516102f39190611394565b60405180910390f35b6103166004803603810190610311919061163c565b610c01565b005b610332600480360381019061032d919061115e565b610da7565b005b61034e6004803603810190610349919061115e565b610ec6565b60405161035b91906112a9565b60405180910390f35b61036c610ee6565b604051610379919061136a565b60405180910390f35b61039c6004803603810190610397919061115e565b610eec565b6040516103a991906112a9565b60405180910390f35b6103cc60048036038101906103c79190611322565b610f0c565b005b6103d6611101565b6040516103e391906112a9565b60405180910390f35b600181815481106103fc57600080fd5b90600052602060002090600202016000915090508060000154908060010154905082565b60008060025403610466576040517f08c379a000000000000000000000000000000000000000000000000000000000815260040161045d90611708565b60405180910390fd5b6000600760019054906101000a900473ffffffffffffffffffffffffffffffffffffffff1673ffffffffffffffffffffffffffffffffffffffff1663f5c9d69e878787876040518563ffffffff1660e01b81526004016104c99493929190611800565b602060405180830381865afa1580156104e6573d6000803e3d6000fd5b505050506040513d601f19601f8201168201806040525081019061050a9190611873565b90508061054c576040517f08c379a0000000000000000000000000000000000000000000000000000000008152600401610543906118ec565b60405180910390fd5b6000836001600281106105625761056161190c565b5b602002013590506009600082815260200190815260200160002060009054906101000a900460ff1615610598576001915061059d565b600091505b8192505050949350505050565b60008060001b600860008473ffffffffffffffffffffffffffffffffffffffff1673ffffffffffffffffffffffffffffffffffffffff1681526020019081526020016000205403610630576040517f08c379a0000000000000000000000000000000000000000000000000000000008152600401610627906119ad565b60405180910390fd5b600860008373ffffffffffffffffffffffffffffffffffffffff1673ffffffffffffffffffffffffffffffffffffffff168152602001908152602001600020549050919050565b6000600254036106bc576040517f08c379a00000000000000000000000000000000000000000000000000000000081526004016106b390611708565b60405180910390fd5b600354421115610701576040517f08c379a00000000000000000000000000000000000000000000000000000000081526004016106f890611a3f565b60405180910390fd5b6000600760019054906101000a900473ffffffffffffffffffffffffffffffffffffffff1673ffffffffffffffffffffffffffffffffffffffff1663f5c9d69e868686866040518563ffffffff1660e01b81526004016107649493929190611800565b602060405180830381865afa158015610781573d6000803e3d6000fd5b505050506040513d601f19601f820116820180604052508101906107a59190611873565b90507fb6030296ed6d28f593d0c257c080ef243cd60eb419e82d45d9e530c593915102816040516107d691906112a9565b60405180910390a18061081e576040517f08c379a0000000000000000000000000000000000000000000000000000000008152600401610815906118ec565b60405180910390fd5b6000826000600281106108345761083361190c565b5b602002013590506000836001600281106108515761085061190c565b5b602002013590506009600082815260200190815260200160002060009054906101000a900460ff16156108b9576040517f08c379a00000000000000000000000000000000000000000000000000000000081526004016108b090611aab565b60405180910390fd5b600a600083815260200190815260200160002060009054906101000a900460ff161561091a576040517f08c379a000000000000000000000000000000000000000000000000000000000815260040161091190611aab565b60405180910390fd5b60016009600083815260200190815260200160002060006101000a81548160ff0219169083151502179055506001600a600084815260200190815260200160002060006101000a81548160ff021916908315150217905550600b829080600181540180825580915050600190039060005260206000200160009091909190915055807f1d4cdcaaff2fc01a95a07d98488ca526d20a79f9d50de8404981671338e66b15836040516109cb919061136a565b60405180910390a250505050505050565b600b81815481106109ec57600080fd5b906000526020600020016000915090505481565b60065481565b60008054906101000a900473ffffffffffffffffffffffffffffffffffffffff1681565b60035481565b60025481565b6060600b805480602002602001604051908101604052809291908181526020018280548015610a8457602002820191906000526020600020905b815481526020019060010190808311610a70575b5050505050905090565b60008054906101000a900473ffffffffffffffffffffffffffffffffffffffff1673ffffffffffffffffffffffffffffffffffffffff163373ffffffffffffffffffffffffffffffffffffffff1614610b1c576040517f08c379a0000000000000000000000000000000000000000000000000000000008152600401610b1390611b3d565b60405180910390fd5b600060025414610b61576040517f08c379a0000000000000000000000000000000000000000000000000000000008152600401610b5890611bcf565b60405180910390fd5b600160405180604001604052808381526020016000815250908060018154018082558091505060019003906000526020600020906002020160009091909190915060008201518160000155602082015181600101555050600160066000828254610bcb9190611c1e565b9250508190555050565b60055481565b600760019054906101000a900473ffffffffffffffffffffffffffffffffffffffff1681565b60008054906101000a900473ffffffffffffffffffffffffffffffffffffffff1673ffffffffffffffffffffffffffffffffffffffff163373ffffffffffffffffffffffffffffffffffffffff1614610c8f576040517f08c379a0000000000000000000000000000000000000000000000000000000008152600401610c8690611b3d565b60405180910390fd5b600060025403610cd4576040517f08c379a0000000000000000000000000000000000000000000000000000000008152600401610ccb90611708565b60405180910390fd5b6003544211610d18576040517f08c379a0000000000000000000000000000000000000000000000000000000008152600401610d0f90611cc4565b60405180910390fd5b60005b6001805490508160ff161015610d8857818160ff1681518110610d4157610d4061190c565b5b602002602001015160018260ff1681548110610d6057610d5f61190c565b5b9060005260206000209060020201600101819055508080610d8090611cf1565b915050610d1b565b506001600760006101000a81548160ff02191690831515021790555050565b60008054906101000a900473ffffffffffffffffffffffffffffffffffffffff1673ffffffffffffffffffffffffffffffffffffffff163373ffffffffffffffffffffffffffffffffffffffff1614610e35576040517f08c379a0000000000000000000000000000000000000000000000000000000008152600401610e2c90611b3d565b60405180910390fd5b600060025414610e7a576040517f08c379a0000000000000000000000000000000000000000000000000000000008152600401610e7190611d8c565b60405180910390fd5b42600281905550600454600254610e919190611c1e565b600381905550806002541115610ec35780600254610eaf9190611dac565b600454610ebc9190611dac565b6004819055505b50565b600a6020528060005260406000206000915054906101000a900460ff1681565b60045481565b60096020528060005260406000206000915054906101000a900460ff1681565b60008054906101000a900473ffffffffffffffffffffffffffffffffffffffff1673ffffffffffffffffffffffffffffffffffffffff163373ffffffffffffffffffffffffffffffffffffffff1614610f9a576040517f08c379a0000000000000000000000000000000000000000000000000000000008152600401610f9190611b3d565b60405180910390fd5b600060025414610fdf576040517f08c379a0000000000000000000000000000000000000000000000000000000008152600401610fd690611e52565b60405180910390fd5b6000801b600860008373ffffffffffffffffffffffffffffffffffffffff1673ffffffffffffffffffffffffffffffffffffffff1681526020019081526020016000205414611063576040517f08c379a000000000000000000000000000000000000000000000000000000000815260040161105a90611ee4565b60405180910390fd5b600042826001436110749190611dac565b4060405160200161108793929190611f8e565b60405160208183030381529060405280519060200120905080600860008473ffffffffffffffffffffffffffffffffffffffff1673ffffffffffffffffffffffffffffffffffffffff168152602001908152602001600020819055506001600560008282546110f69190611c1e565b925050819055505050565b600760009054906101000a900460ff1681565b6000604051905090565b600080fd5b600080fd5b6000819050919050565b61113b81611128565b811461114657600080fd5b50565b60008135905061115881611132565b92915050565b6000602082840312156111745761117361111e565b5b600061118284828501611149565b91505092915050565b6000819050919050565b61119e8161118b565b82525050565b6111ad81611128565b82525050565b60006040820190506111c86000830185611195565b6111d560208301846111a4565b9392505050565b600080fd5b6000819050826020600202820111156111fd576111fc6111dc565b5b92915050565b60008190508260406002028201111561121f5761121e6111dc565b5b92915050565b60008060008061014085870312156112405761123f61111e565b5b600061124e878288016111e1565b945050604061125f87828801611203565b93505060c0611270878288016111e1565b925050610100611282878288016111e1565b91505092959194509250565b60008115159050919050565b6112a38161128e565b82525050565b60006020820190506112be600083018461129a565b92915050565b600073ffffffffffffffffffffffffffffffffffffffff82169050919050565b60006112ef826112c4565b9050919050565b6112ff816112e4565b811461130a57600080fd5b50565b60008135905061131c816112f6565b92915050565b6000602082840312156113385761133761111e565b5b60006113468482850161130d565b91505092915050565b60006020820190506113646000830184611195565b92915050565b600060208201905061137f60008301846111a4565b92915050565b61138e816112e4565b82525050565b60006020820190506113a96000830184611385565b92915050565b600081519050919050565b600082825260208201905092915050565b6000819050602082019050919050565b6113e481611128565b82525050565b60006113f683836113db565b60208301905092915050565b6000602082019050919050565b600061141a826113af565b61142481856113ba565b935061142f836113cb565b8060005b8381101561146057815161144788826113ea565b975061145283611402565b925050600181019050611433565b5085935050505092915050565b60006020820190508181036000830152611487818461140f565b905092915050565b6114988161118b565b81146114a357600080fd5b50565b6000813590506114b58161148f565b92915050565b6000602082840312156114d1576114d061111e565b5b60006114df848285016114a6565b91505092915050565b600080fd5b6000601f19601f8301169050919050565b7f4e487b7100000000000000000000000000000000000000000000000000000000600052604160045260246000fd5b611536826114ed565b810181811067ffffffffffffffff82111715611555576115546114fe565b5b80604052505050565b6000611568611114565b9050611574828261152d565b919050565b600067ffffffffffffffff821115611594576115936114fe565b5b602082029050602081019050919050565b60006115b86115b384611579565b61155e565b905080838252602082019050602084028301858111156115db576115da6111dc565b5b835b8181101561160457806115f08882611149565b8452602084019350506020810190506115dd565b5050509392505050565b600082601f830112611623576116226114e8565b5b81356116338482602086016115a5565b91505092915050565b6000602082840312156116525761165161111e565b5b600082013567ffffffffffffffff8111156116705761166f611123565b5b61167c8482850161160e565b91505092915050565b600082825260208201905092915050565b7f54686520766f74696e672070726f63657373206861736e27742073746172746560008201527f6420796574000000000000000000000000000000000000000000000000000000602082015250565b60006116f2602583611685565b91506116fd82611696565b604082019050919050565b60006020820190508181036000830152611721816116e5565b9050919050565b82818337505050565b61173d60408383611728565b5050565b600060029050919050565b600081905092915050565b6000819050919050565b61176d60408383611728565b5050565b600061177d8383611761565b60408301905092915050565b600082905092915050565b6000604082019050919050565b6117aa81611741565b6117b4818461174c565b92506117bf82611757565b8060005b838110156117f8576117d58284611789565b6117df8782611771565b96506117ea83611794565b9250506001810190506117c3565b505050505050565b6000610140820190506118166000830187611731565b61182360408301866117a1565b61183060c0830185611731565b61183e610100830184611731565b95945050505050565b6118508161128e565b811461185b57600080fd5b50565b60008151905061186d81611847565b92915050565b6000602082840312156118895761188861111e565b5b60006118978482850161185e565b91505092915050565b7f4163636573732064656e6965643a20496e76616c69642050726f6f662e000000600082015250565b60006118d6601d83611685565b91506118e1826118a0565b602082019050919050565b60006020820190508181036000830152611905816118c9565b9050919050565b7f4e487b7100000000000000000000000000000000000000000000000000000000600052603260045260246000fd5b7f54686520766f74657220646f206e6f742068617665207468652072696768742060008201527f746f20766f74652e000000000000000000000000000000000000000000000000602082015250565b6000611997602883611685565b91506119a28261193b565b604082019050919050565b600060208201905081810360008301526119c68161198a565b9050919050565b7f54686520766f74696e672070726f6365737320686173206265656e20636f6d7060008201527f6c657465642e0000000000000000000000000000000000000000000000000000602082015250565b6000611a29602683611685565b9150611a34826119cd565b604082019050919050565b60006020820190508181036000830152611a5881611a1c565b9050919050565b7f596f75206861766520616c726561647920766f74656421000000000000000000600082015250565b6000611a95601783611685565b9150611aa082611a5f565b602082019050919050565b60006020820190508181036000830152611ac481611a88565b9050919050565b7f4f6e6c79206368616972706572736f6e206861732061636365737320746f207460008201527f6869732066756e6374696f6e2100000000000000000000000000000000000000602082015250565b6000611b27602d83611685565b9150611b3282611acb565b604082019050919050565b60006020820190508181036000830152611b5681611b1a565b9050919050565b7f5468652063616e6469646174657320726567697374726174696f6e2070726f6360008201527f65737320686173206265656e20636f6d706c657465642e000000000000000000602082015250565b6000611bb9603783611685565b9150611bc482611b5d565b604082019050919050565b60006020820190508181036000830152611be881611bac565b9050919050565b7f4e487b7100000000000000000000000000000000000000000000000000000000600052601160045260246000fd5b6000611c2982611128565b9150611c3483611128565b9250828201905080821115611c4c57611c4b611bef565b5b92915050565b7f54686520766f74696e672070726f63657373206861736e277420636f6d706c6560008201527f746564207965742e000000000000000000000000000000000000000000000000602082015250565b6000611cae602883611685565b9150611cb982611c52565b604082019050919050565b60006020820190508181036000830152611cdd81611ca1565b9050919050565b600060ff82169050919050565b6000611cfc82611ce4565b915060ff8203611d0f57611d0e611bef565b5b600182019050919050565b7f54686520656c656374696f6e732068617320616c7265616479206265656e207360008201527f7461727465640000000000000000000000000000000000000000000000000000602082015250565b6000611d76602683611685565b9150611d8182611d1a565b604082019050919050565b60006020820190508181036000830152611da581611d69565b9050919050565b6000611db782611128565b9150611dc283611128565b9250828203905081811115611dda57611dd9611bef565b5b92915050565b7f54686520766f7465727320726567697374726174696f6e2070726f636573732060008201527f686173206265656e20636f6d706c657465642e00000000000000000000000000602082015250565b6000611e3c603383611685565b9150611e4782611de0565b604082019050919050565b60006020820190508181036000830152611e6b81611e2f565b9050919050565b7f54686520766f7465722068617320616c7265616479207265676973746572656460008201527f2e00000000000000000000000000000000000000000000000000000000000000602082015250565b6000611ece602183611685565b9150611ed982611e72565b604082019050919050565b60006020820190508181036000830152611efd81611ec1565b9050919050565b6000819050919050565b611f1f611f1a82611128565b611f04565b82525050565b60008160601b9050919050565b6000611f3d82611f25565b9050919050565b6000611f4f82611f32565b9050919050565b611f67611f62826112e4565b611f44565b82525050565b6000819050919050565b611f88611f838261118b565b611f6d565b82525050565b6000611f9a8286611f0e565b602082019150611faa8285611f56565b601482019150611fba8284611f77565b60208201915081905094935050505056fea2646970667358221220df1b7f6af5d354f5013e91ba099a91babdb7638671198a3b0314b1fb26f6f9ea64736f6c634300081c0033",
  "linkReferences": {},
  "deployedLinkReferences": {}
}