{
  "_format": "hh-sol-artifact-1",
  "contractName": "Ballot",
  "sourceName": "contracts/Ballot.sol",
  "abi": [
    {
      "inputs": [
        {
          "internalType": "uint256",
          "name": "stg_lmt",
          "type": "uint256"
        },
        {
          "internalType": "address",
          "name": "_groth16VerifierAddress",
          "type": "address"
        }
      ],
      "stateMutability": "nonpayable",
      "type": "constructor"
    },
    {
      "anonymous": false,
      "inputs": [
        {
          "indexed": false,
          "internalType": "string",
          "name": "error",
          "type": "string"
        }
      ],
      "name": "ErrorOccurred",
      "type": "event"
    },
    {
      "anonymous": false,
      "inputs": [
        {
          "indexed": false,
          "internalType": "bool",
          "name": "result",
          "type": "bool"
        }
      ],
      "name": "ProofResult",
      "type": "event"
    },
    {
      "anonymous": false,
      "inputs": [
        {
          "indexed": false,
          "internalType": "uint256",
          "name": "voteCommitment",
          "type": "uint256"
        },
        {
          "indexed": true,
          "internalType": "uint256",
          "name": "nullifierHash",
          "type": "uint256"
        }
      ],
      "name": "VoteSubmitted",
      "type": "event"
    },
    {
      "inputs": [
        {
          "internalType": "uint256",
          "name": "",
          "type": "uint256"
        }
      ],
      "name": "allVoteCommitments",
      "outputs": [
        {
          "internalType": "uint256",
          "name": "",
          "type": "uint256"
        }
      ],
      "stateMutability": "view",
      "type": "function"
    },
    {
      "inputs": [
        {
          "internalType": "uint256",
          "name": "",
          "type": "uint256"
        }
      ],
      "name": "candidates",
      "outputs": [
        {
          "internalType": "bytes32",
          "name": "name",
          "type": "bytes32"
        },
        {
          "internalType": "uint256",
          "name": "voteCount",
          "type": "uint256"
        }
      ],
      "stateMutability": "view",
      "type": "function"
    },
    {
      "inputs": [],
      "name": "candidatesCount",
      "outputs": [
        {
          "internalType": "uint256",
          "name": "",
          "type": "uint256"
        }
      ],
      "stateMutability": "view",
      "type": "function"
    },
    {
      "inputs": [],
      "name": "chairperson",
      "outputs": [
        {
          "internalType": "address",
          "name": "",
          "type": "address"
        }
      ],
      "stateMutability": "view",
      "type": "function"
    },
    {
      "inputs": [],
      "name": "endTime",
      "outputs": [
        {
          "internalType": "uint256",
          "name": "",
          "type": "uint256"
        }
      ],
      "stateMutability": "view",
      "type": "function"
    },
    {
      "inputs": [],
      "name": "getAllVotes",
      "outputs": [
        {
          "internalType": "uint256[]",
          "name": "",
          "type": "uint256[]"
        }
      ],
      "stateMutability": "view",
      "type": "function"
    },
    {
      "inputs": [],
      "name": "getCandidates",
      "outputs": [
        {
          "components": [
            {
              "internalType": "bytes32",
              "name": "name",
              "type": "bytes32"
            },
            {
              "internalType": "uint256",
              "name": "voteCount",
              "type": "uint256"
            }
          ],
          "internalType": "struct Ballot.Candidate[]",
          "name": "",
          "type": "tuple[]"
        }
      ],
      "stateMutability": "view",
      "type": "function"
    },
    {
      "inputs": [],
      "name": "groth16VerifierAddress",
      "outputs": [
        {
          "internalType": "address",
          "name": "",
          "type": "address"
        }
      ],
      "stateMutability": "view",
      "type": "function"
    },
    {
      "inputs": [
        {
          "internalType": "uint256",
          "name": "",
          "type": "uint256"
        }
      ],
      "name": "hasVoted",
      "outputs": [
        {
          "internalType": "bool",
          "name": "",
          "type": "bool"
        }
      ],
      "stateMutability": "view",
      "type": "function"
    },
    {
      "inputs": [
        {
          "internalType": "uint256[]",
          "name": "votes",
          "type": "uint256[]"
        }
      ],
      "name": "issueBallotResults",
      "outputs": [],
      "stateMutability": "nonpayable",
      "type": "function"
    },
    {
      "inputs": [],
      "name": "issuedResults",
      "outputs": [
        {
          "internalType": "bool",
          "name": "",
          "type": "bool"
        }
      ],
      "stateMutability": "view",
      "type": "function"
    },
    {
      "inputs": [
        {
          "internalType": "uint256[2]",
          "name": "_pA",
          "type": "uint256[2]"
        },
        {
          "internalType": "uint256[2][2]",
          "name": "_pB",
          "type": "uint256[2][2]"
        },
        {
          "internalType": "uint256[2]",
          "name": "_pC",
          "type": "uint256[2]"
        },
        {
          "internalType": "uint256[2]",
          "name": "_pubSignals",
          "type": "uint256[2]"
        }
      ],
      "name": "proveYourVote",
      "outputs": [
        {
          "internalType": "bool",
          "name": "",
          "type": "bool"
        }
      ],
      "stateMutability": "view",
      "type": "function"
    },
    {
      "inputs": [
        {
          "internalType": "bytes32",
          "name": "_name",
          "type": "bytes32"
        }
      ],
      "name": "registerCandidates",
      "outputs": [],
      "stateMutability": "nonpayable",
      "type": "function"
    },
    {
      "inputs": [
        {
          "internalType": "address",
          "name": "voter",
          "type": "address"
        }
      ],
      "name": "registerVoters",
      "outputs": [],
      "stateMutability": "nonpayable",
      "type": "function"
    },
    {
      "inputs": [],
      "name": "stageLimit",
      "outputs": [
        {
          "internalType": "uint256",
          "name": "",
          "type": "uint256"
        }
      ],
      "stateMutability": "view",
      "type": "function"
    },
    {
      "inputs": [
        {
          "internalType": "uint256",
          "name": "curTime",
          "type": "uint256"
        }
      ],
      "name": "startBallot",
      "outputs": [],
      "stateMutability": "nonpayable",
      "type": "function"
    },
    {
      "inputs": [],
      "name": "startupTime",
      "outputs": [
        {
          "internalType": "uint256",
          "name": "",
          "type": "uint256"
        }
      ],
      "stateMutability": "view",
      "type": "function"
    },
    {
      "inputs": [
        {
          "internalType": "uint256[2]",
          "name": "_pA",
          "type": "uint256[2]"
        },
        {
          "internalType": "uint256[2][2]",
          "name": "_pB",
          "type": "uint256[2][2]"
        },
        {
          "internalType": "uint256[2]",
          "name": "_pC",
          "type": "uint256[2]"
        },
        {
          "internalType": "uint256[2]",
          "name": "_pubSignals",
          "type": "uint256[2]"
        }
      ],
      "name": "submitVote",
      "outputs": [],
      "stateMutability": "nonpayable",
      "type": "function"
    },
    {
      "inputs": [
        {
          "internalType": "address",
          "name": "voter",
          "type": "address"
        }
      ],
      "name": "verifyVoter",
      "outputs": [
        {
          "internalType": "bytes32",
          "name": "",
          "type": "bytes32"
        }
      ],
      "stateMutability": "view",
      "type": "function"
    },
    {
      "inputs": [
        {
          "internalType": "uint256",
          "name": "",
          "type": "uint256"
        }
      ],
      "name": "voteCommitments",
      "outputs": [
        {
          "internalType": "bool",
          "name": "",
          "type": "bool"
        }
      ],
      "stateMutability": "view",
      "type": "function"
    },
    {
      "inputs": [],
      "name": "votersCount",
      "outputs": [
        {
          "internalType": "uint256",
          "name": "",
          "type": "uint256"
        }
      ],
      "stateMutability": "view",
      "type": "function"
    }
  ],
  "bytecode": "0x608060405234801561001057600080fd5b506040516125103803806125108339818101604052810190610032919061018d565b336000806101000a81548173ffffffffffffffffffffffffffffffffffffffff021916908373ffffffffffffffffffffffffffffffffffffffff16021790555080600760016101000a81548173ffffffffffffffffffffffffffffffffffffffff021916908373ffffffffffffffffffffffffffffffffffffffff160217905550600060028190555081600481905550600060068190555060006005819055506000600760006101000a81548160ff02191690831515021790555050506101cd565b600080fd5b6000819050919050565b61010c816100f9565b811461011757600080fd5b50565b60008151905061012981610103565b92915050565b600073ffffffffffffffffffffffffffffffffffffffff82169050919050565b600061015a8261012f565b9050919050565b61016a8161014f565b811461017557600080fd5b50565b60008151905061018781610161565b92915050565b600080604083850312156101a4576101a36100f4565b5b60006101b28582860161011a565b92505060206101c385828601610178565b9150509250929050565b612334806101dc6000396000f3fe608060405234801561001057600080fd5b50600436106101375760003560e01c80633477ee2e116100b8578063a0e5f8901161007c578063a0e5f8901461033f578063e8d0827b1461035d578063eac696861461038d578063ecca031f146103ab578063ed8a1608146103db578063f1f710d5146103f757610137565b80633477ee2e1461029a578063851b6ef2146102cb5780638b51ebff146102e95780638eb6f9eb1461030557806398c079381461032157610137565b806324f3da33116100ff57806324f3da33146101f25780632d35a8a2146102225780632e4176cf146102405780633197cbb61461025e578063345eacf21461027c57610137565b8063017cd8271461013c57806306a49fce1461016c57806309bd09501461018a57806318034fe4146101ba5780631927f068146101d6575b600080fd5b61015660048036038101906101519190611225565b610415565b60405161016391906112a9565b60405180910390f35b61017461059f565b60405161018191906113d4565b60405180910390f35b6101a4600480360381019061019f9190611454565b610612565b6040516101b19190611490565b60405180910390f35b6101d460048036038101906101cf91906114d7565b6106df565b005b6101f060048036038101906101eb9190611225565b6107fe565b005b61020c600480360381019061020791906114d7565b610b2b565b6040516102199190611513565b60405180910390f35b61022a610b4f565b6040516102379190611513565b60405180910390f35b610248610b55565b604051610255919061153d565b60405180910390f35b610266610b79565b6040516102739190611513565b60405180910390f35b610284610b7f565b6040516102919190611513565b60405180910390f35b6102b460048036038101906102af91906114d7565b610b85565b6040516102c2929190611558565b60405180910390f35b6102d3610bb9565b6040516102e09190611630565b60405180910390f35b61030360048036038101906102fe919061167e565b610c11565b005b61031f600480360381019061031a91906117ff565b610d58565b005b610329610f4e565b6040516103369190611513565b60405180910390f35b610347610f54565b604051610354919061153d565b60405180910390f35b610377600480360381019061037291906114d7565b610f7a565b60405161038491906112a9565b60405180910390f35b610395610f9a565b6040516103a29190611513565b60405180910390f35b6103c560048036038101906103c091906114d7565b610fa0565b6040516103d291906112a9565b60405180910390f35b6103f560048036038101906103f09190611454565b610fc0565b005b6103ff6111b5565b60405161040c91906112a9565b60405180910390f35b6000806002540361045b576040517f08c379a0000000000000000000000000000000000000000000000000000000008152600401610452906118cb565b60405180910390fd5b6000600760019054906101000a900473ffffffffffffffffffffffffffffffffffffffff1673ffffffffffffffffffffffffffffffffffffffff1663f5c9d69e878787876040518563ffffffff1660e01b81526004016104be94939291906119c3565b602060405180830381865afa1580156104db573d6000803e3d6000fd5b505050506040513d601f19601f820116820180604052508101906104ff9190611a36565b905080610541576040517f08c379a000000000000000000000000000000000000000000000000000000000815260040161053890611aaf565b60405180910390fd5b60008360016002811061055757610556611acf565b5b602002013590506009600082815260200190815260200160002060009054906101000a900460ff161561058d5760019150610592565b600091505b8192505050949350505050565b60606001805480602002602001604051908101604052809291908181526020016000905b82821015610609578382906000526020600020906002020160405180604001604052908160008201548152602001600182015481525050815260200190600101906105c3565b50505050905090565b60008060001b600860008473ffffffffffffffffffffffffffffffffffffffff1673ffffffffffffffffffffffffffffffffffffffff1681526020019081526020016000205403610698576040517f08c379a000000000000000000000000000000000000000000000000000000000815260040161068f90611b70565b60405180910390fd5b600860008373ffffffffffffffffffffffffffffffffffffffff1673ffffffffffffffffffffffffffffffffffffffff168152602001908152602001600020549050919050565b60008054906101000a900473ffffffffffffffffffffffffffffffffffffffff1673ffffffffffffffffffffffffffffffffffffffff163373ffffffffffffffffffffffffffffffffffffffff161461076d576040517f08c379a000000000000000000000000000000000000000000000000000000000815260040161076490611c02565b60405180910390fd5b6000600254146107b2576040517f08c379a00000000000000000000000000000000000000000000000000000000081526004016107a990611c94565b60405180910390fd5b426002819055508060025411156107e557806002546107d19190611ce3565b6004546107de9190611ce3565b6004819055505b6004546002546107f59190611d17565b60038190555050565b600060025403610843576040517f08c379a000000000000000000000000000000000000000000000000000000000815260040161083a906118cb565b60405180910390fd5b600354421115610888576040517f08c379a000000000000000000000000000000000000000000000000000000000815260040161087f90611dbd565b60405180910390fd5b6000600760019054906101000a900473ffffffffffffffffffffffffffffffffffffffff1673ffffffffffffffffffffffffffffffffffffffff1663f5c9d69e868686866040518563ffffffff1660e01b81526004016108eb94939291906119c3565b602060405180830381865afa158015610908573d6000803e3d6000fd5b505050506040513d601f19601f8201168201806040525081019061092c9190611a36565b90507fb6030296ed6d28f593d0c257c080ef243cd60eb419e82d45d9e530c5939151028160405161095d91906112a9565b60405180910390a1806109a5576040517f08c379a000000000000000000000000000000000000000000000000000000000815260040161099c90611aaf565b60405180910390fd5b6000826000600281106109bb576109ba611acf565b5b602002013590506000836001600281106109d8576109d7611acf565b5b602002013590506009600082815260200190815260200160002060009054906101000a900460ff1615610a40576040517f08c379a0000000000000000000000000000000000000000000000000000000008152600401610a3790611e29565b60405180910390fd5b600a600083815260200190815260200160002060009054906101000a900460ff1615610aa1576040517f08c379a0000000000000000000000000000000000000000000000000000000008152600401610a9890611e29565b60405180910390fd5b60016009600083815260200190815260200160002060006101000a81548160ff0219169083151502179055506001600a600084815260200190815260200160002060006101000a81548160ff021916908315150217905550600b82908060018154018082558091505060019003906000526020600020016000909190919091505550505050505050565b600b8181548110610b3b57600080fd5b906000526020600020016000915090505481565b60065481565b60008054906101000a900473ffffffffffffffffffffffffffffffffffffffff1681565b60035481565b60025481565b60018181548110610b9557600080fd5b90600052602060002090600202016000915090508060000154908060010154905082565b6060600b805480602002602001604051908101604052809291908181526020018280548015610c0757602002820191906000526020600020905b815481526020019060010190808311610bf3575b5050505050905090565b60008054906101000a900473ffffffffffffffffffffffffffffffffffffffff1673ffffffffffffffffffffffffffffffffffffffff163373ffffffffffffffffffffffffffffffffffffffff1614610c9f576040517f08c379a0000000000000000000000000000000000000000000000000000000008152600401610c9690611c02565b60405180910390fd5b600060025414610ce4576040517f08c379a0000000000000000000000000000000000000000000000000000000008152600401610cdb90611ebb565b60405180910390fd5b600160405180604001604052808381526020016000815250908060018154018082558091505060019003906000526020600020906002020160009091909190915060008201518160000155602082015181600101555050600160066000828254610d4e9190611d17565b9250508190555050565b60008054906101000a900473ffffffffffffffffffffffffffffffffffffffff1673ffffffffffffffffffffffffffffffffffffffff163373ffffffffffffffffffffffffffffffffffffffff1614610de6576040517f08c379a0000000000000000000000000000000000000000000000000000000008152600401610ddd90611c02565b60405180910390fd5b600060025403610e2b576040517f08c379a0000000000000000000000000000000000000000000000000000000008152600401610e2290611f73565b60405180910390fd5b6003544211610e6f576040517f08c379a0000000000000000000000000000000000000000000000000000000008152600401610e669061202b565b60405180910390fd5b600760009054906101000a900460ff1615610ebf576040517f08c379a0000000000000000000000000000000000000000000000000000000008152600401610eb6906120bd565b60405180910390fd5b60005b6001805490508160ff161015610f2f57818160ff1681518110610ee857610ee7611acf565b5b602002602001015160018260ff1681548110610f0757610f06611acf565b5b9060005260206000209060020201600101819055508080610f27906120ea565b915050610ec2565b506001600760006101000a81548160ff02191690831515021790555050565b60055481565b600760019054906101000a900473ffffffffffffffffffffffffffffffffffffffff1681565b600a6020528060005260406000206000915054906101000a900460ff1681565b60045481565b60096020528060005260406000206000915054906101000a900460ff1681565b60008054906101000a900473ffffffffffffffffffffffffffffffffffffffff1673ffffffffffffffffffffffffffffffffffffffff163373ffffffffffffffffffffffffffffffffffffffff161461104e576040517f08c379a000000000000000000000000000000000000000000000000000000000815260040161104590611c02565b60405180910390fd5b600060025414611093576040517f08c379a000000000000000000000000000000000000000000000000000000000815260040161108a90612185565b60405180910390fd5b6000801b600860008373ffffffffffffffffffffffffffffffffffffffff1673ffffffffffffffffffffffffffffffffffffffff1681526020019081526020016000205414611117576040517f08c379a000000000000000000000000000000000000000000000000000000000815260040161110e90612217565b60405180910390fd5b600042826001436111289190611ce3565b4060405160200161113b939291906122c1565b60405160208183030381529060405280519060200120905080600860008473ffffffffffffffffffffffffffffffffffffffff1673ffffffffffffffffffffffffffffffffffffffff168152602001908152602001600020819055506001600560008282546111aa9190611d17565b925050819055505050565b600760009054906101000a900460ff1681565b6000604051905090565b600080fd5b600080fd5b600080fd5b6000819050826020600202820111156111fd576111fc6111dc565b5b92915050565b60008190508260406002028201111561121f5761121e6111dc565b5b92915050565b60008060008061014085870312156112405761123f6111d2565b5b600061124e878288016111e1565b945050604061125f87828801611203565b93505060c0611270878288016111e1565b925050610100611282878288016111e1565b91505092959194509250565b60008115159050919050565b6112a38161128e565b82525050565b60006020820190506112be600083018461129a565b92915050565b600081519050919050565b600082825260208201905092915050565b6000819050602082019050919050565b6000819050919050565b611303816112f0565b82525050565b6000819050919050565b61131c81611309565b82525050565b60408201600082015161133860008501826112fa565b50602082015161134b6020850182611313565b50505050565b600061135d8383611322565b60408301905092915050565b6000602082019050919050565b6000611381826112c4565b61138b81856112cf565b9350611396836112e0565b8060005b838110156113c75781516113ae8882611351565b97506113b983611369565b92505060018101905061139a565b5085935050505092915050565b600060208201905081810360008301526113ee8184611376565b905092915050565b600073ffffffffffffffffffffffffffffffffffffffff82169050919050565b6000611421826113f6565b9050919050565b61143181611416565b811461143c57600080fd5b50565b60008135905061144e81611428565b92915050565b60006020828403121561146a576114696111d2565b5b60006114788482850161143f565b91505092915050565b61148a816112f0565b82525050565b60006020820190506114a56000830184611481565b92915050565b6114b481611309565b81146114bf57600080fd5b50565b6000813590506114d1816114ab565b92915050565b6000602082840312156114ed576114ec6111d2565b5b60006114fb848285016114c2565b91505092915050565b61150d81611309565b82525050565b60006020820190506115286000830184611504565b92915050565b61153781611416565b82525050565b6000602082019050611552600083018461152e565b92915050565b600060408201905061156d6000830185611481565b61157a6020830184611504565b9392505050565b600081519050919050565b600082825260208201905092915050565b6000819050602082019050919050565b60006115b98383611313565b60208301905092915050565b6000602082019050919050565b60006115dd82611581565b6115e7818561158c565b93506115f28361159d565b8060005b8381101561162357815161160a88826115ad565b9750611615836115c5565b9250506001810190506115f6565b5085935050505092915050565b6000602082019050818103600083015261164a81846115d2565b905092915050565b61165b816112f0565b811461166657600080fd5b50565b60008135905061167881611652565b92915050565b600060208284031215611694576116936111d2565b5b60006116a284828501611669565b91505092915050565b600080fd5b6000601f19601f8301169050919050565b7f4e487b7100000000000000000000000000000000000000000000000000000000600052604160045260246000fd5b6116f9826116b0565b810181811067ffffffffffffffff82111715611718576117176116c1565b5b80604052505050565b600061172b6111c8565b905061173782826116f0565b919050565b600067ffffffffffffffff821115611757576117566116c1565b5b602082029050602081019050919050565b600061177b6117768461173c565b611721565b9050808382526020820190506020840283018581111561179e5761179d6111dc565b5b835b818110156117c757806117b388826114c2565b8452602084019350506020810190506117a0565b5050509392505050565b600082601f8301126117e6576117e56116ab565b5b81356117f6848260208601611768565b91505092915050565b600060208284031215611815576118146111d2565b5b600082013567ffffffffffffffff811115611833576118326111d7565b5b61183f848285016117d1565b91505092915050565b600082825260208201905092915050565b7f54686520766f74696e672070726f63657373206861736e27742073746172746560008201527f6420796574000000000000000000000000000000000000000000000000000000602082015250565b60006118b5602583611848565b91506118c082611859565b604082019050919050565b600060208201905081810360008301526118e4816118a8565b9050919050565b82818337505050565b611900604083836118eb565b5050565b600060029050919050565b600081905092915050565b6000819050919050565b611930604083836118eb565b5050565b60006119408383611924565b60408301905092915050565b600082905092915050565b6000604082019050919050565b61196d81611904565b611977818461190f565b92506119828261191a565b8060005b838110156119bb57611998828461194c565b6119a28782611934565b96506119ad83611957565b925050600181019050611986565b505050505050565b6000610140820190506119d960008301876118f4565b6119e66040830186611964565b6119f360c08301856118f4565b611a016101008301846118f4565b95945050505050565b611a138161128e565b8114611a1e57600080fd5b50565b600081519050611a3081611a0a565b92915050565b600060208284031215611a4c57611a4b6111d2565b5b6000611a5a84828501611a21565b91505092915050565b7f4163636573732064656e6965643a20496e76616c69642050726f6f662e000000600082015250565b6000611a99601d83611848565b9150611aa482611a63565b602082019050919050565b60006020820190508181036000830152611ac881611a8c565b9050919050565b7f4e487b7100000000000000000000000000000000000000000000000000000000600052603260045260246000fd5b7f54686520766f74657220646f206e6f742068617665207468652072696768742060008201527f746f20766f74652e000000000000000000000000000000000000000000000000602082015250565b6000611b5a602883611848565b9150611b6582611afe565b604082019050919050565b60006020820190508181036000830152611b8981611b4d565b9050919050565b7f4f6e6c79206368616972706572736f6e206861732061636365737320746f207460008201527f6869732066756e6374696f6e2100000000000000000000000000000000000000602082015250565b6000611bec602d83611848565b9150611bf782611b90565b604082019050919050565b60006020820190508181036000830152611c1b81611bdf565b9050919050565b7f54686520656c656374696f6e732068617320616c7265616479206265656e207360008201527f7461727465640000000000000000000000000000000000000000000000000000602082015250565b6000611c7e602683611848565b9150611c8982611c22565b604082019050919050565b60006020820190508181036000830152611cad81611c71565b9050919050565b7f4e487b7100000000000000000000000000000000000000000000000000000000600052601160045260246000fd5b6000611cee82611309565b9150611cf983611309565b9250828203905081811115611d1157611d10611cb4565b5b92915050565b6000611d2282611309565b9150611d2d83611309565b9250828201905080821115611d4557611d44611cb4565b5b92915050565b7f54686520766f74696e672070726f6365737320686173206265656e20636f6d7060008201527f6c657465642e0000000000000000000000000000000000000000000000000000602082015250565b6000611da7602683611848565b9150611db282611d4b565b604082019050919050565b60006020820190508181036000830152611dd681611d9a565b9050919050565b7f596f75206861766520616c726561647920766f74656421000000000000000000600082015250565b6000611e13601783611848565b9150611e1e82611ddd565b602082019050919050565b60006020820190508181036000830152611e4281611e06565b9050919050565b7f5468652063616e6469646174657320726567697374726174696f6e2070726f6360008201527f65737320686173206265656e20636f6d706c657465642e000000000000000000602082015250565b6000611ea5603783611848565b9150611eb082611e49565b604082019050919050565b60006020820190508181036000830152611ed481611e98565b9050919050565b7f54686520766f74696e672070726f63657373206861736e27742073746172746560008201527f64207965742e20526573756c74732063616e6e6f74206265206973737565642060208201527f6265666f7265207468652062616c6c6f742069732066696e69736865642e0000604082015250565b6000611f5d605e83611848565b9150611f6882611edb565b606082019050919050565b60006020820190508181036000830152611f8c81611f50565b9050919050565b7f54686520766f74696e672070726f63657373206861736e277420636f6d706c6560008201527f746564207965742e20526573756c74732063616e6e6f7420626520697373756560208201527f64206265666f7265207468652062616c6c6f742069732066696e69736865642e604082015250565b6000612015606083611848565b915061202082611f93565b606082019050919050565b6000602082019050818103600083015261204481612008565b9050919050565b7f5468652066696e616c2062616c6c6f7420726573756c74732068617320616c7260008201527f65616479206265656e2069737375656421000000000000000000000000000000602082015250565b60006120a7603183611848565b91506120b28261204b565b604082019050919050565b600060208201905081810360008301526120d68161209a565b9050919050565b600060ff82169050919050565b60006120f5826120dd565b915060ff820361210857612107611cb4565b5b600182019050919050565b7f54686520766f7465727320726567697374726174696f6e2070726f636573732060008201527f686173206265656e20636f6d706c657465642e00000000000000000000000000602082015250565b600061216f603383611848565b915061217a82612113565b604082019050919050565b6000602082019050818103600083015261219e81612162565b9050919050565b7f54686520766f7465722068617320616c7265616479207265676973746572656460008201527f2e00000000000000000000000000000000000000000000000000000000000000602082015250565b6000612201602183611848565b915061220c826121a5565b604082019050919050565b60006020820190508181036000830152612230816121f4565b9050919050565b6000819050919050565b61225261224d82611309565b612237565b82525050565b60008160601b9050919050565b600061227082612258565b9050919050565b600061228282612265565b9050919050565b61229a61229582611416565b612277565b82525050565b6000819050919050565b6122bb6122b6826112f0565b6122a0565b82525050565b60006122cd8286612241565b6020820191506122dd8285612289565b6014820191506122ed82846122aa565b60208201915081905094935050505056fea26469706673582212202d43cd204d61cb0eff88c304a29b32d01761b939e6f317800b5a6bbfc632b25464736f6c634300081c0033",
  "linkReferences": {},
  "deployedLinkReferences": {}
}