{
  "_format": "hh-sol-artifact-1",
  "contractName": "FakeTornado",
  "sourceName": "contracts/FakeTornado.sol",
  "abi": [
    {
      "anonymous": false,
      "inputs": [
        {
          "indexed": true,
          "internalType": "bytes32",
          "name": "commitment",
          "type": "bytes32"
        }
      ],
      "name": "Deposit",
      "type": "event"
    },
    {
      "anonymous": false,
      "inputs": [
        {
          "indexed": true,
          "internalType": "address",
          "name": "to",
          "type": "address"
        }
      ],
      "name": "Withdraw",
      "type": "event"
    },
    {
      "inputs": [
        {
          "internalType": "address",
          "name": "",
          "type": "address"
        }
      ],
      "name": "balances",
      "outputs": [
        {
          "internalType": "uint256",
          "name": "",
          "type": "uint256"
        }
      ],
      "stateMutability": "view",
      "type": "function"
    },
    {
      "inputs": [
        {
          "internalType": "bytes32",
          "name": "",
          "type": "bytes32"
        }
      ],
      "name": "commitments",
      "outputs": [
        {
          "internalType": "bool",
          "name": "",
          "type": "bool"
        }
      ],
      "stateMutability": "view",
      "type": "function"
    },
    {
      "inputs": [
        {
          "internalType": "bytes32",
          "name": "commitment",
          "type": "bytes32"
        }
      ],
      "name": "deposit",
      "outputs": [],
      "stateMutability": "payable",
      "type": "function"
    },
    {
      "inputs": [
        {
          "internalType": "address",
          "name": "to",
          "type": "address"
        }
      ],
      "name": "withdraw",
      "outputs": [],
      "stateMutability": "nonpayable",
      "type": "function"
    }
  ],
  "bytecode": "0x6080604052348015600f57600080fd5b506106a78061001f6000396000f3fe60806040526004361061003f5760003560e01c806327e235e31461004457806351cff8d914610081578063839df945146100aa578063b214faa5146100e7575b600080fd5b34801561005057600080fd5b5061006b6004803603810190610066919061042b565b610103565b6040516100789190610471565b60405180910390f35b34801561008d57600080fd5b506100a860048036038101906100a3919061042b565b61011b565b005b3480156100b657600080fd5b506100d160048036038101906100cc91906104c2565b6102b4565b6040516100de919061050a565b60405180910390f35b61010160048036038101906100fc91906104c2565b6102d4565b005b60016020528060005260406000206000915090505481565b6000600160003373ffffffffffffffffffffffffffffffffffffffff1673ffffffffffffffffffffffffffffffffffffffff168152602001908152602001600020541161019d576040517f08c379a000000000000000000000000000000000000000000000000000000000815260040161019490610582565b60405180910390fd5b6000600160003373ffffffffffffffffffffffffffffffffffffffff1673ffffffffffffffffffffffffffffffffffffffff1681526020019081526020016000205490506000600160003373ffffffffffffffffffffffffffffffffffffffff1673ffffffffffffffffffffffffffffffffffffffff168152602001908152602001600020819055508173ffffffffffffffffffffffffffffffffffffffff166108fc829081150290604051600060405180830381858888f1935050505015801561026c573d6000803e3d6000fd5b508173ffffffffffffffffffffffffffffffffffffffff167ff67611512e0a2d90c96fd3f08dca4971bc45fba9dc679eabe839a32abbe58a8e60405160405180910390a25050565b60006020528060005260406000206000915054906101000a900460ff1681565b60003411610317576040517f08c379a000000000000000000000000000000000000000000000000000000000815260040161030e906105ee565b60405180910390fd5b600160008083815260200190815260200160002060006101000a81548160ff02191690831515021790555034600160003373ffffffffffffffffffffffffffffffffffffffff1673ffffffffffffffffffffffffffffffffffffffff1681526020019081526020016000206000828254610391919061063d565b92505081905550807f743d3067919fbf32a17803b5c0a9dd39d48691e1376031b691cc173f593b093360405160405180910390a250565b600080fd5b600073ffffffffffffffffffffffffffffffffffffffff82169050919050565b60006103f8826103cd565b9050919050565b610408816103ed565b811461041357600080fd5b50565b600081359050610425816103ff565b92915050565b600060208284031215610441576104406103c8565b5b600061044f84828501610416565b91505092915050565b6000819050919050565b61046b81610458565b82525050565b60006020820190506104866000830184610462565b92915050565b6000819050919050565b61049f8161048c565b81146104aa57600080fd5b50565b6000813590506104bc81610496565b92915050565b6000602082840312156104d8576104d76103c8565b5b60006104e6848285016104ad565b91505092915050565b60008115159050919050565b610504816104ef565b82525050565b600060208201905061051f60008301846104fb565b92915050565b600082825260208201905092915050565b7f4e6f2062616c616e636520746f20776974686472617700000000000000000000600082015250565b600061056c601683610525565b915061057782610536565b602082019050919050565b6000602082019050818103600083015261059b8161055f565b9050919050565b7f4465706f736974206d7573742062652067726561746572207468616e20300000600082015250565b60006105d8601e83610525565b91506105e3826105a2565b602082019050919050565b60006020820190508181036000830152610607816105cb565b9050919050565b7f4e487b7100000000000000000000000000000000000000000000000000000000600052601160045260246000fd5b600061064882610458565b915061065383610458565b925082820190508082111561066b5761066a61060e565b5b9291505056fea2646970667358221220bf5a274794437bfec9ff65be678615cf3bda385bde40db437302477bb2be832f64736f6c634300081c0033",
  "linkReferences": {},
  "deployedLinkReferences": {}
}