{
  "_format": "hh-sol-artifact-1",
  "contractName": "Ballot",
  "sourceName": "contracts/Ballot.sol",
  "abi": [
    {
      "inputs": [
        {
          "internalType": "uint256",
          "name": "stg_lmt",
          "type": "uint256"
        },
        {
          "internalType": "address",
          "name": "_groth16VerifierAddress",
          "type": "address"
        }
      ],
      "stateMutability": "nonpayable",
      "type": "constructor"
    },
    {
      "anonymous": false,
      "inputs": [
        {
          "indexed": false,
          "internalType": "string",
          "name": "error",
          "type": "string"
        }
      ],
      "name": "ErrorOccurred",
      "type": "event"
    },
    {
      "anonymous": false,
      "inputs": [
        {
          "indexed": false,
          "internalType": "bool",
          "name": "result",
          "type": "bool"
        }
      ],
      "name": "ProofResult",
      "type": "event"
    },
    {
      "anonymous": false,
      "inputs": [
        {
          "indexed": false,
          "internalType": "uint256",
          "name": "voteCommitment",
          "type": "uint256"
        },
        {
          "indexed": true,
          "internalType": "uint256",
          "name": "nullifierHash",
          "type": "uint256"
        }
      ],
      "name": "VoteSubmitted",
      "type": "event"
    },
    {
      "inputs": [
        {
          "internalType": "uint256",
          "name": "",
          "type": "uint256"
        }
      ],
      "name": "allVoteCommitments",
      "outputs": [
        {
          "internalType": "uint256",
          "name": "",
          "type": "uint256"
        }
      ],
      "stateMutability": "view",
      "type": "function"
    },
    {
      "inputs": [
        {
          "internalType": "uint256",
          "name": "",
          "type": "uint256"
        }
      ],
      "name": "candidates",
      "outputs": [
        {
          "internalType": "bytes32",
          "name": "name",
          "type": "bytes32"
        },
        {
          "internalType": "uint256",
          "name": "voteCount",
          "type": "uint256"
        }
      ],
      "stateMutability": "view",
      "type": "function"
    },
    {
      "inputs": [],
      "name": "candidatesCount",
      "outputs": [
        {
          "internalType": "uint256",
          "name": "",
          "type": "uint256"
        }
      ],
      "stateMutability": "view",
      "type": "function"
    },
    {
      "inputs": [],
      "name": "chairperson",
      "outputs": [
        {
          "internalType": "address",
          "name": "",
          "type": "address"
        }
      ],
      "stateMutability": "view",
      "type": "function"
    },
    {
      "inputs": [],
      "name": "endTime",
      "outputs": [
        {
          "internalType": "uint256",
          "name": "",
          "type": "uint256"
        }
      ],
      "stateMutability": "view",
      "type": "function"
    },
    {
      "inputs": [],
      "name": "getAllVotes",
      "outputs": [
        {
          "internalType": "uint256[]",
          "name": "",
          "type": "uint256[]"
        }
      ],
      "stateMutability": "view",
      "type": "function"
    },
    {
      "inputs": [],
      "name": "getCandidates",
      "outputs": [
        {
          "components": [
            {
              "internalType": "bytes32",
              "name": "name",
              "type": "bytes32"
            },
            {
              "internalType": "uint256",
              "name": "voteCount",
              "type": "uint256"
            }
          ],
          "internalType": "struct Ballot.Candidate[]",
          "name": "",
          "type": "tuple[]"
        }
      ],
      "stateMutability": "view",
      "type": "function"
    },
    {
      "inputs": [],
      "name": "groth16VerifierAddress",
      "outputs": [
        {
          "internalType": "address",
          "name": "",
          "type": "address"
        }
      ],
      "stateMutability": "view",
      "type": "function"
    },
    {
      "inputs": [
        {
          "internalType": "uint256",
          "name": "",
          "type": "uint256"
        }
      ],
      "name": "hasVoted",
      "outputs": [
        {
          "internalType": "bool",
          "name": "",
          "type": "bool"
        }
      ],
      "stateMutability": "view",
      "type": "function"
    },
    {
      "inputs": [
        {
          "internalType": "uint256[]",
          "name": "votes",
          "type": "uint256[]"
        }
      ],
      "name": "issueBallotResults",
      "outputs": [],
      "stateMutability": "nonpayable",
      "type": "function"
    },
    {
      "inputs": [],
      "name": "issuedResults",
      "outputs": [
        {
          "internalType": "bool",
          "name": "",
          "type": "bool"
        }
      ],
      "stateMutability": "view",
      "type": "function"
    },
    {
      "inputs": [
        {
          "internalType": "uint256[2]",
          "name": "_pA",
          "type": "uint256[2]"
        },
        {
          "internalType": "uint256[2][2]",
          "name": "_pB",
          "type": "uint256[2][2]"
        },
        {
          "internalType": "uint256[2]",
          "name": "_pC",
          "type": "uint256[2]"
        },
        {
          "internalType": "uint256[2]",
          "name": "_pubSignals",
          "type": "uint256[2]"
        }
      ],
      "name": "proveYourVote",
      "outputs": [
        {
          "internalType": "bool",
          "name": "",
          "type": "bool"
        }
      ],
      "stateMutability": "view",
      "type": "function"
    },
    {
      "inputs": [
        {
          "internalType": "bytes32",
          "name": "_name",
          "type": "bytes32"
        }
      ],
      "name": "registerCandidates",
      "outputs": [],
      "stateMutability": "nonpayable",
      "type": "function"
    },
    {
      "inputs": [
        {
          "internalType": "address",
          "name": "voter",
          "type": "address"
        }
      ],
      "name": "registerVoters",
      "outputs": [],
      "stateMutability": "nonpayable",
      "type": "function"
    },
    {
      "inputs": [],
      "name": "stageLimit",
      "outputs": [
        {
          "internalType": "uint256",
          "name": "",
          "type": "uint256"
        }
      ],
      "stateMutability": "view",
      "type": "function"
    },
    {
      "inputs": [
        {
          "internalType": "uint256",
          "name": "curTime",
          "type": "uint256"
        }
      ],
      "name": "startBallot",
      "outputs": [],
      "stateMutability": "nonpayable",
      "type": "function"
    },
    {
      "inputs": [],
      "name": "startupTime",
      "outputs": [
        {
          "internalType": "uint256",
          "name": "",
          "type": "uint256"
        }
      ],
      "stateMutability": "view",
      "type": "function"
    },
    {
      "inputs": [
        {
          "internalType": "uint256[2]",
          "name": "_pA",
          "type": "uint256[2]"
        },
        {
          "internalType": "uint256[2][2]",
          "name": "_pB",
          "type": "uint256[2][2]"
        },
        {
          "internalType": "uint256[2]",
          "name": "_pC",
          "type": "uint256[2]"
        },
        {
          "internalType": "uint256[2]",
          "name": "_pubSignals",
          "type": "uint256[2]"
        }
      ],
      "name": "submitVote",
      "outputs": [],
      "stateMutability": "nonpayable",
      "type": "function"
    },
    {
      "inputs": [
        {
          "internalType": "address",
          "name": "voter",
          "type": "address"
        }
      ],
      "name": "verifyVoter",
      "outputs": [
        {
          "internalType": "bytes32",
          "name": "",
          "type": "bytes32"
        }
      ],
      "stateMutability": "view",
      "type": "function"
    },
    {
      "inputs": [
        {
          "internalType": "uint256",
          "name": "",
          "type": "uint256"
        }
      ],
      "name": "voteCommitments",
      "outputs": [
        {
          "internalType": "bool",
          "name": "",
          "type": "bool"
        }
      ],
      "stateMutability": "view",
      "type": "function"
    },
    {
      "inputs": [],
      "name": "votersCount",
      "outputs": [
        {
          "internalType": "uint256",
          "name": "",
          "type": "uint256"
        }
      ],
      "stateMutability": "view",
      "type": "function"
    }
  ],
  "bytecode": "0x608060405234801561001057600080fd5b506040516124b03803806124b08339818101604052810190610032919061018d565b336000806101000a81548173ffffffffffffffffffffffffffffffffffffffff021916908373ffffffffffffffffffffffffffffffffffffffff16021790555080600760016101000a81548173ffffffffffffffffffffffffffffffffffffffff021916908373ffffffffffffffffffffffffffffffffffffffff160217905550600060028190555081600481905550600060068190555060006005819055506000600760006101000a81548160ff02191690831515021790555050506101cd565b600080fd5b6000819050919050565b61010c816100f9565b811461011757600080fd5b50565b60008151905061012981610103565b92915050565b600073ffffffffffffffffffffffffffffffffffffffff82169050919050565b600061015a8261012f565b9050919050565b61016a8161014f565b811461017557600080fd5b50565b60008151905061018781610161565b92915050565b600080604083850312156101a4576101a36100f4565b5b60006101b28582860161011a565b92505060206101c385828601610178565b9150509250929050565b6122d4806101dc6000396000f3fe608060405234801561001057600080fd5b50600436106101375760003560e01c80633477ee2e116100b8578063a0e5f8901161007c578063a0e5f8901461033f578063e8d0827b1461035d578063eac696861461038d578063ecca031f146103ab578063ed8a1608146103db578063f1f710d5146103f757610137565b80633477ee2e1461029a578063851b6ef2146102cb5780638b51ebff146102e95780638eb6f9eb1461030557806398c079381461032157610137565b806324f3da33116100ff57806324f3da33146101f25780632d35a8a2146102225780632e4176cf146102405780633197cbb61461025e578063345eacf21461027c57610137565b8063017cd8271461013c57806306a49fce1461016c57806309bd09501461018a57806318034fe4146101ba5780631927f068146101d6575b600080fd5b61015660048036038101906101519190611211565b610415565b6040516101639190611295565b60405180910390f35b61017461058b565b60405161018191906113c0565b60405180910390f35b6101a4600480360381019061019f9190611440565b6105fe565b6040516101b1919061147c565b60405180910390f35b6101d460048036038101906101cf91906114c3565b6106cb565b005b6101f060048036038101906101eb9190611211565b6107ea565b005b61020c600480360381019061020791906114c3565b610b17565b60405161021991906114ff565b60405180910390f35b61022a610b3b565b60405161023791906114ff565b60405180910390f35b610248610b41565b6040516102559190611529565b60405180910390f35b610266610b65565b60405161027391906114ff565b60405180910390f35b610284610b6b565b60405161029191906114ff565b60405180910390f35b6102b460048036038101906102af91906114c3565b610b71565b6040516102c2929190611544565b60405180910390f35b6102d3610ba5565b6040516102e0919061161c565b60405180910390f35b61030360048036038101906102fe919061166a565b610bfd565b005b61031f600480360381019061031a91906117eb565b610d44565b005b610329610f3a565b60405161033691906114ff565b60405180910390f35b610347610f40565b6040516103549190611529565b60405180910390f35b610377600480360381019061037291906114c3565b610f66565b6040516103849190611295565b60405180910390f35b610395610f86565b6040516103a291906114ff565b60405180910390f35b6103c560048036038101906103c091906114c3565b610f8c565b6040516103d29190611295565b60405180910390f35b6103f560048036038101906103f09190611440565b610fac565b005b6103ff6111a1565b60405161040c9190611295565b60405180910390f35b6000806002540361045b576040517f08c379a0000000000000000000000000000000000000000000000000000000008152600401610452906118b7565b60405180910390fd5b6000600760019054906101000a900473ffffffffffffffffffffffffffffffffffffffff1673ffffffffffffffffffffffffffffffffffffffff1663f5c9d69e878787876040518563ffffffff1660e01b81526004016104be94939291906119af565b602060405180830381865afa1580156104db573d6000803e3d6000fd5b505050506040513d601f19601f820116820180604052508101906104ff9190611a22565b905080610541576040517f08c379a000000000000000000000000000000000000000000000000000000000815260040161053890611a9b565b60405180910390fd5b60008360016002811061055757610556611abb565b5b602002013590506009600082815260200190815260200160002060009054906101000a900460ff1692505050949350505050565b60606001805480602002602001604051908101604052809291908181526020016000905b828210156105f5578382906000526020600020906002020160405180604001604052908160008201548152602001600182015481525050815260200190600101906105af565b50505050905090565b60008060001b600860008473ffffffffffffffffffffffffffffffffffffffff1673ffffffffffffffffffffffffffffffffffffffff1681526020019081526020016000205403610684576040517f08c379a000000000000000000000000000000000000000000000000000000000815260040161067b90611b5c565b60405180910390fd5b600860008373ffffffffffffffffffffffffffffffffffffffff1673ffffffffffffffffffffffffffffffffffffffff168152602001908152602001600020549050919050565b60008054906101000a900473ffffffffffffffffffffffffffffffffffffffff1673ffffffffffffffffffffffffffffffffffffffff163373ffffffffffffffffffffffffffffffffffffffff1614610759576040517f08c379a000000000000000000000000000000000000000000000000000000000815260040161075090611bee565b60405180910390fd5b60006002541461079e576040517f08c379a000000000000000000000000000000000000000000000000000000000815260040161079590611c80565b60405180910390fd5b426002819055508060025411156107d157806002546107bd9190611ccf565b6004546107ca9190611ccf565b6004819055505b6004546002546107e19190611d03565b60038190555050565b60006002540361082f576040517f08c379a0000000000000000000000000000000000000000000000000000000008152600401610826906118b7565b60405180910390fd5b600354421115610874576040517f08c379a000000000000000000000000000000000000000000000000000000000815260040161086b90611da9565b60405180910390fd5b6000600760019054906101000a900473ffffffffffffffffffffffffffffffffffffffff1673ffffffffffffffffffffffffffffffffffffffff1663f5c9d69e868686866040518563ffffffff1660e01b81526004016108d794939291906119af565b602060405180830381865afa1580156108f4573d6000803e3d6000fd5b505050506040513d601f19601f820116820180604052508101906109189190611a22565b90507fb6030296ed6d28f593d0c257c080ef243cd60eb419e82d45d9e530c593915102816040516109499190611295565b60405180910390a180610991576040517f08c379a000000000000000000000000000000000000000000000000000000000815260040161098890611a9b565b60405180910390fd5b6000826000600281106109a7576109a6611abb565b5b602002013590506000836001600281106109c4576109c3611abb565b5b602002013590506009600082815260200190815260200160002060009054906101000a900460ff1615610a2c576040517f08c379a0000000000000000000000000000000000000000000000000000000008152600401610a2390611e15565b60405180910390fd5b600a600083815260200190815260200160002060009054906101000a900460ff1615610a8d576040517f08c379a0000000000000000000000000000000000000000000000000000000008152600401610a8490611e15565b60405180910390fd5b60016009600083815260200190815260200160002060006101000a81548160ff0219169083151502179055506001600a600084815260200190815260200160002060006101000a81548160ff021916908315150217905550600b82908060018154018082558091505060019003906000526020600020016000909190919091505550505050505050565b600b8181548110610b2757600080fd5b906000526020600020016000915090505481565b60065481565b60008054906101000a900473ffffffffffffffffffffffffffffffffffffffff1681565b60035481565b60025481565b60018181548110610b8157600080fd5b90600052602060002090600202016000915090508060000154908060010154905082565b6060600b805480602002602001604051908101604052809291908181526020018280548015610bf357602002820191906000526020600020905b815481526020019060010190808311610bdf575b5050505050905090565b60008054906101000a900473ffffffffffffffffffffffffffffffffffffffff1673ffffffffffffffffffffffffffffffffffffffff163373ffffffffffffffffffffffffffffffffffffffff1614610c8b576040517f08c379a0000000000000000000000000000000000000000000000000000000008152600401610c8290611bee565b60405180910390fd5b600060025414610cd0576040517f08c379a0000000000000000000000000000000000000000000000000000000008152600401610cc790611ea7565b60405180910390fd5b600160405180604001604052808381526020016000815250908060018154018082558091505060019003906000526020600020906002020160009091909190915060008201518160000155602082015181600101555050600160066000828254610d3a9190611d03565b9250508190555050565b60008054906101000a900473ffffffffffffffffffffffffffffffffffffffff1673ffffffffffffffffffffffffffffffffffffffff163373ffffffffffffffffffffffffffffffffffffffff1614610dd2576040517f08c379a0000000000000000000000000000000000000000000000000000000008152600401610dc990611bee565b60405180910390fd5b600060025403610e17576040517f08c379a0000000000000000000000000000000000000000000000000000000008152600401610e0e90611f39565b60405180910390fd5b6003544211610e5b576040517f08c379a0000000000000000000000000000000000000000000000000000000008152600401610e5290611fcb565b60405180910390fd5b600760009054906101000a900460ff1615610eab576040517f08c379a0000000000000000000000000000000000000000000000000000000008152600401610ea29061205d565b60405180910390fd5b60005b6001805490508160ff161015610f1b57818160ff1681518110610ed457610ed3611abb565b5b602002602001015160018260ff1681548110610ef357610ef2611abb565b5b9060005260206000209060020201600101819055508080610f139061208a565b915050610eae565b506001600760006101000a81548160ff02191690831515021790555050565b60055481565b600760019054906101000a900473ffffffffffffffffffffffffffffffffffffffff1681565b600a6020528060005260406000206000915054906101000a900460ff1681565b60045481565b60096020528060005260406000206000915054906101000a900460ff1681565b60008054906101000a900473ffffffffffffffffffffffffffffffffffffffff1673ffffffffffffffffffffffffffffffffffffffff163373ffffffffffffffffffffffffffffffffffffffff161461103a576040517f08c379a000000000000000000000000000000000000000000000000000000000815260040161103190611bee565b60405180910390fd5b60006002541461107f576040517f08c379a000000000000000000000000000000000000000000000000000000000815260040161107690612125565b60405180910390fd5b6000801b600860008373ffffffffffffffffffffffffffffffffffffffff1673ffffffffffffffffffffffffffffffffffffffff1681526020019081526020016000205414611103576040517f08c379a00000000000000000000000000000000000000000000000000000000081526004016110fa906121b7565b60405180910390fd5b600042826001436111149190611ccf565b4060405160200161112793929190612261565b60405160208183030381529060405280519060200120905080600860008473ffffffffffffffffffffffffffffffffffffffff1673ffffffffffffffffffffffffffffffffffffffff168152602001908152602001600020819055506001600560008282546111969190611d03565b925050819055505050565b600760009054906101000a900460ff1681565b6000604051905090565b600080fd5b600080fd5b600080fd5b6000819050826020600202820111156111e9576111e86111c8565b5b92915050565b60008190508260406002028201111561120b5761120a6111c8565b5b92915050565b600080600080610140858703121561122c5761122b6111be565b5b600061123a878288016111cd565b945050604061124b878288016111ef565b93505060c061125c878288016111cd565b92505061010061126e878288016111cd565b91505092959194509250565b60008115159050919050565b61128f8161127a565b82525050565b60006020820190506112aa6000830184611286565b92915050565b600081519050919050565b600082825260208201905092915050565b6000819050602082019050919050565b6000819050919050565b6112ef816112dc565b82525050565b6000819050919050565b611308816112f5565b82525050565b60408201600082015161132460008501826112e6565b50602082015161133760208501826112ff565b50505050565b6000611349838361130e565b60408301905092915050565b6000602082019050919050565b600061136d826112b0565b61137781856112bb565b9350611382836112cc565b8060005b838110156113b357815161139a888261133d565b97506113a583611355565b925050600181019050611386565b5085935050505092915050565b600060208201905081810360008301526113da8184611362565b905092915050565b600073ffffffffffffffffffffffffffffffffffffffff82169050919050565b600061140d826113e2565b9050919050565b61141d81611402565b811461142857600080fd5b50565b60008135905061143a81611414565b92915050565b600060208284031215611456576114556111be565b5b60006114648482850161142b565b91505092915050565b611476816112dc565b82525050565b6000602082019050611491600083018461146d565b92915050565b6114a0816112f5565b81146114ab57600080fd5b50565b6000813590506114bd81611497565b92915050565b6000602082840312156114d9576114d86111be565b5b60006114e7848285016114ae565b91505092915050565b6114f9816112f5565b82525050565b600060208201905061151460008301846114f0565b92915050565b61152381611402565b82525050565b600060208201905061153e600083018461151a565b92915050565b6000604082019050611559600083018561146d565b61156660208301846114f0565b9392505050565b600081519050919050565b600082825260208201905092915050565b6000819050602082019050919050565b60006115a583836112ff565b60208301905092915050565b6000602082019050919050565b60006115c98261156d565b6115d38185611578565b93506115de83611589565b8060005b8381101561160f5781516115f68882611599565b9750611601836115b1565b9250506001810190506115e2565b5085935050505092915050565b6000602082019050818103600083015261163681846115be565b905092915050565b611647816112dc565b811461165257600080fd5b50565b6000813590506116648161163e565b92915050565b6000602082840312156116805761167f6111be565b5b600061168e84828501611655565b91505092915050565b600080fd5b6000601f19601f8301169050919050565b7f4e487b7100000000000000000000000000000000000000000000000000000000600052604160045260246000fd5b6116e58261169c565b810181811067ffffffffffffffff82111715611704576117036116ad565b5b80604052505050565b60006117176111b4565b905061172382826116dc565b919050565b600067ffffffffffffffff821115611743576117426116ad565b5b602082029050602081019050919050565b600061176761176284611728565b61170d565b9050808382526020820190506020840283018581111561178a576117896111c8565b5b835b818110156117b3578061179f88826114ae565b84526020840193505060208101905061178c565b5050509392505050565b600082601f8301126117d2576117d1611697565b5b81356117e2848260208601611754565b91505092915050565b600060208284031215611801576118006111be565b5b600082013567ffffffffffffffff81111561181f5761181e6111c3565b5b61182b848285016117bd565b91505092915050565b600082825260208201905092915050565b7f54686520766f74696e672070726f63657373206861736e27742073746172746560008201527f6420796574000000000000000000000000000000000000000000000000000000602082015250565b60006118a1602583611834565b91506118ac82611845565b604082019050919050565b600060208201905081810360008301526118d081611894565b9050919050565b82818337505050565b6118ec604083836118d7565b5050565b600060029050919050565b600081905092915050565b6000819050919050565b61191c604083836118d7565b5050565b600061192c8383611910565b60408301905092915050565b600082905092915050565b6000604082019050919050565b611959816118f0565b61196381846118fb565b925061196e82611906565b8060005b838110156119a7576119848284611938565b61198e8782611920565b965061199983611943565b925050600181019050611972565b505050505050565b6000610140820190506119c560008301876118e0565b6119d26040830186611950565b6119df60c08301856118e0565b6119ed6101008301846118e0565b95945050505050565b6119ff8161127a565b8114611a0a57600080fd5b50565b600081519050611a1c816119f6565b92915050565b600060208284031215611a3857611a376111be565b5b6000611a4684828501611a0d565b91505092915050565b7f4163636573732064656e6965643a20496e76616c69642050726f6f662e000000600082015250565b6000611a85601d83611834565b9150611a9082611a4f565b602082019050919050565b60006020820190508181036000830152611ab481611a78565b9050919050565b7f4e487b7100000000000000000000000000000000000000000000000000000000600052603260045260246000fd5b7f54686520766f74657220646f6573206e6f74206861766520746865207269676860008201527f7420746f20766f74652e00000000000000000000000000000000000000000000602082015250565b6000611b46602a83611834565b9150611b5182611aea565b604082019050919050565b60006020820190508181036000830152611b7581611b39565b9050919050565b7f4f6e6c79206368616972706572736f6e206861732061636365737320746f207460008201527f6869732066756e6374696f6e2100000000000000000000000000000000000000602082015250565b6000611bd8602d83611834565b9150611be382611b7c565b604082019050919050565b60006020820190508181036000830152611c0781611bcb565b9050919050565b7f54686520656c656374696f6e732068617320616c7265616479206265656e207360008201527f7461727465640000000000000000000000000000000000000000000000000000602082015250565b6000611c6a602683611834565b9150611c7582611c0e565b604082019050919050565b60006020820190508181036000830152611c9981611c5d565b9050919050565b7f4e487b7100000000000000000000000000000000000000000000000000000000600052601160045260246000fd5b6000611cda826112f5565b9150611ce5836112f5565b9250828203905081811115611cfd57611cfc611ca0565b5b92915050565b6000611d0e826112f5565b9150611d19836112f5565b9250828201905080821115611d3157611d30611ca0565b5b92915050565b7f54686520766f74696e672070726f6365737320686173206265656e20636f6d7060008201527f6c657465642e0000000000000000000000000000000000000000000000000000602082015250565b6000611d93602683611834565b9150611d9e82611d37565b604082019050919050565b60006020820190508181036000830152611dc281611d86565b9050919050565b7f596f75206861766520616c726561647920766f74656421000000000000000000600082015250565b6000611dff601783611834565b9150611e0a82611dc9565b602082019050919050565b60006020820190508181036000830152611e2e81611df2565b9050919050565b7f5468652063616e6469646174657320726567697374726174696f6e2070726f6360008201527f65737320686173206265656e20636f6d706c657465642e000000000000000000602082015250565b6000611e91603783611834565b9150611e9c82611e35565b604082019050919050565b60006020820190508181036000830152611ec081611e84565b9050919050565b7f54686520766f74696e672070726f63657373206861736e27742073746172746560008201527f64207965742e0000000000000000000000000000000000000000000000000000602082015250565b6000611f23602683611834565b9150611f2e82611ec7565b604082019050919050565b60006020820190508181036000830152611f5281611f16565b9050919050565b7f54686520766f74696e672070726f63657373206861736e277420636f6d706c6560008201527f746564207965742e000000000000000000000000000000000000000000000000602082015250565b6000611fb5602883611834565b9150611fc082611f59565b604082019050919050565b60006020820190508181036000830152611fe481611fa8565b9050919050565b7f5468652066696e616c2062616c6c6f7420726573756c7473206861766520616c60008201527f7265616479206265656e20697373756564210000000000000000000000000000602082015250565b6000612047603283611834565b915061205282611feb565b604082019050919050565b600060208201905081810360008301526120768161203a565b9050919050565b600060ff82169050919050565b60006120958261207d565b915060ff82036120a8576120a7611ca0565b5b600182019050919050565b7f54686520766f7465727320726567697374726174696f6e2070726f636573732060008201527f686173206265656e20636f6d706c657465642e00000000000000000000000000602082015250565b600061210f603383611834565b915061211a826120b3565b604082019050919050565b6000602082019050818103600083015261213e81612102565b9050919050565b7f54686520766f7465722068617320616c7265616479207265676973746572656460008201527f2e00000000000000000000000000000000000000000000000000000000000000602082015250565b60006121a1602183611834565b91506121ac82612145565b604082019050919050565b600060208201905081810360008301526121d081612194565b9050919050565b6000819050919050565b6121f26121ed826112f5565b6121d7565b82525050565b60008160601b9050919050565b6000612210826121f8565b9050919050565b600061222282612205565b9050919050565b61223a61223582611402565b612217565b82525050565b6000819050919050565b61225b612256826112dc565b612240565b82525050565b600061226d82866121e1565b60208201915061227d8285612229565b60148201915061228d828461224a565b60208201915081905094935050505056fea26469706673582212202e5a540c5b51bd090c8661720fd4d3f5bedd7637add010bc74b4cb1fac37a25664736f6c634300081c0033",
  "linkReferences": {},
  "deployedLinkReferences": {}
}